:020000021000EC
:10000000F8FF0510E9ED02003DEE0200B501010028
:10001000BB010100C1010100C70101000000000097
:1000200000000000000000000000000019020100B4
:100030003FEE020000000000B1020100C102010019
:100040003FEE02003FEE02003FEE02003FEE0200F4
:100050003FEE02003FEE02003FEE02003FEE0200E4
:100060003FEE02003FEE02003FEE02003FEE0200D4
:10007000E9AF0100D1E50200A5E80200DDED0200D4
:10008000E3ED02003FEE02003FEE02003FEE020011
:100090003FEE02003FEE02003FEE02003FEE0200A4
:1000A0003FEE02003FEE02003FEE02003FEE020094
:1000B0003FEE02003FEE02003FEE02003FEE020084
:1000C0000000000000000000000000000000000030
:1000D0000000000000000000000000000000000020
:1000E0000000000000000000000000000000000010
:1000F0000000000000000000000000000000000000
:1001000010B5054C237833B9044B13B10448AFF351
:1001100000800123237010BDC00E001000000000FD
:10012000C0A1030008B5034B1BB103490348AFF35B
:10013000008008BD00000000C40E0010C0A1030034
:10014000154B002B08BF134B9D46A3F5803A0021A9
:100150008B460F461348144A121A23F005F80F4B2A
:10016000002B00D098470E4B002B00D09847002062
:10017000002104000D000D48002802D00C481BF09F
:10018000D5F922F039FF200029001BF03BFF1BF0BE
:10019000C7FB00BF00000800F8FF051000000000CA
:1001A00061BF0200C00E0010C86D01102DB5020025
:1001B00000000000102300F007B8202300F004B86E
:1001C000302300F001B840239C46F0B404AE7546DD
:1001D000E80801D3EFF309860E4F0FCE0FC70FBC0F
:1001E0000FC74046494652465B460FC71DCE3100F9
:1001F000A60A00D304316E0900D248311FC7EFF3BD
:1002000009806946EFF3148663C7604601491AF016
:1002100073FE00BFA82701101EF0040F0CBFEFF300
:100220000880EFF30980816911F8021C91BB01B5C8
:1002300090E80F10E047BDE800508CE80300244B25
:1002400093E80600914208BF704741B91EF0100FB5
:1002500010D12049086820F0010008600AE02CE96C
:10026000F00F1EF0100F08BF2CED108AC1F838C037
:1002700081F822E01A6092F82210906B61F0FF0E74
:100280001EF0100F08BFB0EC108AB0E8F00F80F33A
:1002900009887047104A13689942FAD801B552F894
:1002A00021C00FC8E047BDE80050CCF800007047FF
:1002B00001B51DF01BFABDE80140EFF3098CBEE764
:1002C00001B51DF0DBF9BDE80140EFF3098CB6E79D
:1002D000EC03001034EF00E0706E03007BB972B9DC
:1002E0000029BEBF00204FF0004106E008BF0028F3
:1002F0001CBF6FF000414FF0FF3000F0BFB9ADF10F
:10030000080C6DE904CE002909DB002B1ADB00F094
:100310004DF8DDF804E0DDE9022304B07047404207
:1003200061EB4101002B1BDB00F040F8DDF804E03D
:10033000DDE9022304B0404261EB4101524263EB2C
:1003400043037047524263EB430300F02FF8DDF89C
:1003500004E0DDE9022304B0404261EB4101704753
:10036000524263EB430300F021F8DDF804E0DDE9DD
:10037000022304B0524263EB4303704753B94AB9B6
:10038000002908BF00281CBF4FF0FF314FF0FF309D
:1003900000F074B9ADF1080C6DE904CE00F006F878
:1003A000DDF804E0DDE9022304B070472DE9F047F1
:1003B000089E04468846002B40F085808A421546F8
:1003C00048D9B2FA82F24AB1C2F1200701FA02F327
:1003D00020FA07F7954047EA030894404FEA154E84
:1003E000230CB8FBFEF71FFA85FC0EFB178843EAC7
:1003F000084307FB0CF1994209D9EB1807F1FF30CC
:1004000080F0E380994240F2E080023F2B445B1A87
:10041000A4B2B3FBFEF00EFB103344EA034400FB2E
:100420000CFCA44509D92C1900F1FF3380F0CB80D6
:10043000A44540F2C88002382C4440EA0740A4EBAF
:100440000C0400271EB1D4400023C6E900433946FE
:10045000BDE8F087002A53D0B2FA82F2002A40F0B9
:10046000B680491B4FEA154E1FFA85F80127B1FBEC
:10047000FEFC230C0EFB1C1143EA014308FB0CF1AC
:10048000994207D9EB180CF1FF3002D2994200F2E1
:10049000EC808446591AA3B2B1FBFEF00EFB101497
:1004A00043EA044408FB00F8A04507D92C1900F1E1
:1004B000FF3302D2A04500F2DC801846A4EB08040A
:1004C00040EA0C40BEE78B4208D9002E78D00027C6
:1004D000C6E9000138463946BDE8F087B3FA83F72C
:1004E0007FB98B4202D3824200F2BD80841A61EB55
:1004F000030301209846002EA9D0C6E90048A6E7CC
:10050000FFDEC7F12005BB4022FA05FC4CEA030CD4
:1005100001FA07F420FA05F821FA05F34FEA1C4E18
:1005200048EA0404B3FBFEF9210C0EFB19331FFA51
:100530008CF841EA034309FB08FA9A4502FA07F2EC
:1005400000FA07F10BD91CEB030309F1FF3080F02F
:1005500088809A4540F28580A9F102096344A3EBA3
:100560000A03A4B2B3FBFEF00EFB103344EA0344CB
:1005700000FB08F8A04508D91CEB040400F1FF3388
:100580006BD2A04569D90238644440EA0940A4EB23
:100590000804A0FB02894C45C6464B4654D351D0B3
:1005A000002E69D0B1EB0E0264EB030404FA05F5EA
:1005B00022FA07F3FC401D43C6E90054002746E732
:1005C0003746304643E7184637E707461FE7C2F18C
:1005D000200320FA03F7954001FA02F021FA03F311
:1005E0004FEA154E3843010CB3FBFEF71FFA85F8AE
:1005F0000EFB173341EA034107FB08F38B4204FA71
:1006000002F407D9691807F1FF3C28D28B4226D99A
:10061000023F2944CB1A81B2B3FBFEF00EFB10332C
:1006200041EA034100FB08F38B4207D9691800F146
:10063000FF3C10D28B420ED902382944C91A40EA35
:10064000074714E74145ABD2B8EB020E69EB0C0249
:1006500001381346A4E76046F0E7184695E7674679
:10066000D8E781467BE7384645E7ACF1020C2B44DE
:1006700010E702382C4421E73746E8E6704700BF10
:1006800010F8012B11F8013B012A28BF9A42F7D03C
:10069000D01A7047034613F8012B002AFBD1181A11
:1006A0000138704710B5034B0360044602F098FC14
:1006B000204610BD5C3B030010B5034B03600446AD
:1006C000FFF7F0FF204610BD6C3B030010B5034B55
:1006D0000360044602F084FC204610BD7C3B03000E
:1006E00010B50446FFF7DEFF20460C211BF066F92B
:1006F000204610BD10B50446FFF7DEFF20460C2152
:100700001BF05CF9204610BD10B50446FFF7DEFF74
:1007100020460C211BF052F9204610BD012202F0A8
:10072000E4BC000070B505460E46011D002022F015
:10073000A3FE0446286020B122F04CFA306001206C
:1007400070BD0349034808F023FE2046F8E700BFC8
:100750009D3E030038DB001038B5044604F19705D0
:1007600008460A22294609F008FA29462046BDE82B
:10077000384022F069BE00007FB5244B244D1C6830
:10078000244E236820469B689847236829462046C4
:100790009B6C984723682946DB6B1F4D2046984782
:1007A00023682946DB6A204698473146284602F0EE
:1007B00087FE2846194902F083FE2846184902F0B0
:1007C0007FFE2368294620461B6D164D984704225C
:1007D00000230DEB020101933046012302F074FC6B
:1007E0001149284608F0BAFD236821461B6A01A872
:1007F000984701A9284608F0C1FD01A808F037FE76
:10080000236820465B6D984704B070BD0447030021
:10081000763E0300980F00108C0F0010A40F0010FC
:10082000800F001038DB0010823E030070B5234CAF
:10083000234E0023054620462370FFF78DFF2149F4
:10084000204622F001FE29682046FFF785FF314649
:10085000204622F0F9FDA9882046FFF77DFF3146AA
:10086000204622F0F1FDB5F906102046FFF774FF8F
:100870003146204622F0E8FDB5F908102046FFF782
:100880006BFF3146204622F0DFFDB5F90A10204605
:10089000FFF762FF3146204622F0D6FDB5F90C1075
:1008A0002046FFF759FF3146204622F0CDFDB5F92D
:1008B0000E102046FFF750FF70BD00BFB00F0010B4
:1008C000193C03002D4A0300F0B5AE48A9B002F070
:1008D000E7FB0446AB4802F0EDFB962826DCAA4A6B
:1008E0000023984204DDE15C02F8011B0133F8E7C4
:1008F000A64B034400225A73A44C211D04F10D00A1
:1009000022F0BAFD206060B322F064F905460928A0
:1009100000F27C81DFE810F02B003C005500650000
:100920006D007400BB00F900020129019849994843
:1009300008F014FD0A229721964808F073FD9649A5
:10094000944808F025FD904A631E963413F8011F61
:1009500002F8011B9C42F9D18C4B002283F8A320A2
:10096000CAE78E498B4808F013FD29B0F0BD8C4CC6
:100970008C4900232370204622F066FD21468A48D8
:10098000FFF7CCFE8949834808F0E8FC2146E9E7F7
:100990008749002022F070FD0146206078B1804C2C
:1009A00002A822F061FD002323708249204622F034
:1009B0004BFD02A9204622F047FD7F49DBE77F4936
:1009C000D0E700F056FA7E4B7E4900221A70744B35
:1009D0001A70184622F038FD01467348FFF79EFE54
:1009E000C3E7774B784901221A706D4B00221A70C9
:1009F000EFE7734B754900221A70694B1A70E8E7EC
:100A0000674C002323706E4B1B782BB17049204636
:100A100022F01AFD2146E0E701A95C48FFF782FEBB
:100A200008B96C49F3E702A95848FFF77BFE08B9FB
:100A30006949ECE7019D05F1FF03B3F5FF7F04D899
:100A4000029BFF33B3F5FF7F04D96449544822F079
:100A5000FBFC61E06249204622F0F6FC2946204674
:100A6000FFF77AFE5F49204622F0EEFC029920460D
:100A7000FFF772FE21464C48FFF750FEBDF9040017
:100A800000F07CF9BDF9080000F090F96DE7444CE6
:100A9000002323704A4B1B78002BB7D101A93B4898
:100AA000FFF740FE0028BCD002A93848FFF73AFE05
:100AB0000028BDD0019D05F57A73B3F5FA6F05D80E
:100AC000029B03F57A73B3F5FA6F01D94649BDE786
:100AD0004649204622F0B8FC29462046FFF73CFE56
:100AE0004049204622F0B0FC02992046FFF734FE30
:100AF00021462D48FFF712FEBDF9040000F06EF903
:100B0000BDF9080000F084F92FE702A800F0EAF927
:100B100001460298FFF78AFE21495EE7284B1C78C0
:100B20000CB1334992E702A800F0ECF91C4D3149B1
:100B30002C700646284622F087FC31462846FFF7EF
:100B40000BFE29461848184FFFF7E8FDA6427FF72D
:100B50000CAF0298A1B200EB0410FFF767FE294624
:100B60003846FFF7DBFD0134F0E70D4C0748002362
:100B7000237002A90293FFF7D5FD00283ED11E493C
:100B800045E700BF800F0010E90E0010DC0E0010DA
:100B90001B3C030038DB00104A3C03007E3C030092
:100BA000B00F0010933C0300A40F0010983C03000A
:100BB000E00E0010A43C0300B13C03009D3E030086
:100BC0007C100010B63C0300DB3C0300F73C030044
:100BD000123D03002F3D03004F3D0300703D030015
:100BE000903D030000680300A73D0300C83D0300DB
:100BF000E03D0300003E0300183E0300029BB3F5F6
:100C00007A7F01D9064902E7064A13800649074858
:100C100008F0A4FB0A222946044808F005FCA4E6D3
:100C20003C3E03000C0100105F3E030038DB001067
:100C300008B5044802F063FA18B1BDE80840FFF7B0
:100C400043BE08BD800F00102DE9F3411F4D204C1D
:100C50002049214F214E284602F014FC2846204D01
:100C6000204922464FF000081AF05EFC9723CDF889
:100C7000008008221C49284602F0F8F92F60284617
:100C80001A4D224631461AF04FFC122218492846C6
:100C900002F01EFC2846174D174922461AF044FC64
:100CA0009723CDF8008012221449284602F0DEF97D
:100CB0003146224628462F601AF036FC104911486A
:100CC00002B0BDE8F04122F0CFBB00BF8C0F001096
:100CD00000010010843B03007C3B0300CD060100B3
:100CE000800F001019340100A93B0300980F001079
:100CF000CE3B0300A40F0010B9060100F33B030034
:100D0000183C0300E00E0010134A1449B2F90030F9
:100D1000108007EE900AC31AF8EEE76A07EE903AE1
:100D20000F4BF8EEE77A93ED007A0E4B67EE877A79
:100D300093ED007AE6EE877AFDEEE77A17EE903AC9
:100D40001BB28B42B8BF0B46B3F5FA7FA8BF4FF476
:100D5000FA731846704700BF7A1000100CFEFFFFB0
:100D60000401001008010010034A11680160516875
:100D70001289416002817047701000100A4B0028F0
:100D800010B50446D88009DB00210B2008F052FC86
:100D900021460C20BDE8104008F04CBC41420B201D
:100DA00008F048FC0021F4E7701000100A4B0028FE
:100DB00010B50446188109DB0021062008F03AFC32
:100DC00021460720BDE8104008F034BC414206200F
:100DD00008F030FC0021F4E7701000100B4B0028E5
:100DE00058804FF47A7208DBC82310FB03F0B0FB85
:100DF000F2F0373000B2FFF7C1BF00F57A70E1239F
:100E0000584390FBF2F0FF38F4E700BF7010001079
:100E10000B4B00289880B8BF00F57A704FF0E303C1
:100E2000ACBF10FB03F058434FF47A72ABBFB0FB7A
:100E3000F2F090FBF2F01C30FF3800B2FFF7B6BFC3
:100E40007010001010B5054B04461880FFF7C6FF60
:100E50002046BDE81040FFF7DBBF00BF7010001058
:100E600008B5081A00B2FFF74FFFBDE80840FFF7CA
:100E7000E9BF08B50020FFF781FF0020BDE808406A
:100E8000FFF794BF30B585B001A8FFF76DFF11499A
:100E90000A8840F6B7339A4219D80F4D0F4C2D6887
:100EA0001001231825500E4800889880BDF80400D2
:100EB000D880BDF806001881BDF808005881BDF83B
:100EC0000A0098810132BDF80C00D8810A8005B073
:100ED00030BD00BF0E0100108810001090100010EF
:100EE00084100010054B064A1B8803F1805101391C
:100EF00002EB01120260581E80B270470E01001012
:100F000090100010024B0360024B1888704700BF1E
:100F1000901000100E01001010B5084C4FF4E13194
:100F2000204608F08EFCFFF727FC00F081F82046F1
:100F30000349BDE8104008F02BBA00BF38DB0010B1
:100F4000E43E0300F0B52E4B19680B6897B003A878
:100F50001B6F984703A802F037F920B903A802F0E5
:100F6000D5F817B0F0BD27492748284D284C08F080
:100F7000F5F903A9684602F00DF96946224808F020
:100F8000FDF9684608F073FA03A802F03DF900285D
:100F900031D0FFF74DFE2B7843B323781D4F33B983
:100FA0001D4A01232370138008F0DEFB386008F02F
:100FB000DBFB1A4B1A4E18603B681A4FC01A00210F
:100FC0003060084600F0A0F83880FFF75BFF164B52
:100FD00039881888FFF744FF326842F6DF639A4287
:100FE000D2D9FFF746FF00232B70CDE72278002AE5
:100FF000CAD02370C8E70D49034808F0C9F9FEE7D5
:1010000004470300B33E030038DB00107C100010DF
:101010008C10001010CC00100E0100108010001079
:1010200088100010841000100C010010C23E030054
:1010300038B501210F2008F047FB00210F2008F0F0
:1010400075FB0121102008F03FFB0021102008F063
:101050006DFB2A4C00210F2008F036FB4FF4FA7587
:101060000A2008F093FBE5830121204600F0F2FC02
:1010700050B30021204600F075FC44F62061204664
:1010800000F0F6FB2A21204600F0D4F91421204676
:1010900000F079FA0021102008F016FB0A2008F071
:1010A00075FBA4F84A50012104F12C0000F0D2FC99
:1010B00060B901241249134808F050F90A22214668
:1010C000104808F0CAF9FEE70446F3E7002104F1EE
:1010D0002C0000F047FC44F6206104F12C0000F0E5
:1010E000C7FB04F12C002B2100F0A4F904F12C0023
:1010F0001421BDE8384000F046BA00BF7CCC001097
:10110000FE3E030038DB0010024B2C2200FB0230B5
:1011100000F05CBB7CCC001010B5064C204600F003
:101120005DF904F12C0000F059F90348BDE81040C6
:1011300000F01EBF7CCC001014CC001000207047C3
:101140007047006910B10368DB68184770474900B1
:101150000023C161C0F82C327047036801211B6B6A
:10116000184710B403689C6B0123A4465DF8044B38
:101170006047D0F82C32B3F5807F1FBF5A1CC0F8EF
:101180002C22C01880F82C1114BF012000207047B9
:10119000D0F8280170477047C0F830127047C0F887
:1011A000341270470346D0F82801A8B1D3F828219B
:1011B00082B1D3F824211A4492F82000D3F82421D4
:1011C0000132D2B2C3F82421D3F82821013AC3F85E
:1011D000282170474FF0FF307047D0F828312BB1ED
:1011E000D0F82431184490F8200070474FF0FF30B9
:1011F0007047000010B5044B0360044600F50E7004
:101200001DF05AF8204610BD303F0300006908B1B8
:1012100008F078BE704707B581F001010091D0F861
:101220002C32C16900F59672006908F097FE00281B
:1012300014BF0220002003B05DF804FB38B5D0F8DD
:101240002C3214461A44B2F5807F88BFC3F58074EF
:10125000054600F596702246184421F077FFD5F830
:101260002C322344C5F82C32204638BD70B50369B2
:1012700004468BB928201AF077FB94F9141094F9DE
:101280001820054608F02EFF2368256120469B6A3A
:101290000249BDE87040184770BD00BFA08601003C
:1012A00070B5C2B083F00103009302AE0446154648
:1012B000134649003246006908F070FEC8B9A842DA
:1012C00018D0D4F82831B3F5807F10D0D4F820316D
:1012D000325C234483F82020D4F820310133DBB280
:1012E000C4F82031D4F828310133C4F82831013052
:1012F000E5E70025284642B070BD000073B54FF405
:101300007A730025C0E90153184B03600446C0E915
:101310000451826129464FF48072203021F024FF6D
:10132000134BC4F82051C4F838322946C4F824516C
:10133000C4E98B55C4F82851C4F83452C4F8485253
:1013400004F51E701AF000FF04F50E7604F5237004
:101350001AF0BEFD304600952B464FF480521821FE
:101360001CF01AFF204602B070BD00BF303F0300E2
:10137000BC6F030070B50D4C0D4E0E4D1B22192194
:101380002046FFF7BBFF20460B4C324629461AF099
:10139000CBF82A222B212046FFF7B0FF3246294600
:1013A0002046BDE870401AF0BFB800BFD4CC001092
:1013B00000010010F5110100C8CF001010B504465F
:1013C000C08B48B108F0D0F9638CC01AE38B80B2AF
:1013D00083422CBF0020012010BD0000054A82611D
:1013E000292202770022C28380F820204FF0407229
:1013F00082627047D4CC001070B5044680690368DF
:101400000D46DB6A217F16469847A0690368290AC2
:101410001B689847A0690368E9B21B689847A069F0
:10142000036831461B689847A06903685B6B98475F
:10143000207370BD38B505460C4601F07F020121CE
:10144000FFF7DAFF2C7738BD70B504468069036872
:101450000E46DB6A217F15469847A0690368310A6A
:101460001B689847A0690368F1B21B689847A06998
:101470000368290A1B689847A0690368E9B21B68DA
:101480009847A06903685B6B9847207370BD70B57F
:101490000446806903680E46DB6A217F154698473B
:1014A000A0690368310A1B689847A0690368F1B214
:1014B0001B689847A0690368290E1B689847A069B4
:1014C0000368C5F307411B689847A0690368C5F323
:1014D00007211B689847A0690368E9B21B68984711
:1014E000A06903685B6B9847207370BD38B50446EC
:1014F000806903680D46DB6A217F9847A06903680D
:10150000290A1B689847A0690368E9B21B689847D5
:10151000A06903685B6B98472073A069217F03680B
:101520000122DB6B9847A06903685B699847C0B2EA
:1015300038BD38B50446806903680D46DB6A217FF3
:101540009847A0690368290A1B689847A06903683F
:10155000E9B21B689847A06903685B6B98472073E2
:10156000A069217F03680222DB6B9847A0690368AA
:101570005B6998470546A06903685B69984740EA3C
:10158000052080B238BD10B5C28C04464A436C2198
:10159000FFF77DFF204601228621FFF72DFF204621
:1015A00040228721BDE81040FFF726BF10B50B2170
:1015B0000446FFF79BFF082184F829002046FFF727
:1015C00095FF94F8292084F82A0002F07F02204633
:1015D0000B21FFF711FF94F82A2002F003022046A6
:1015E0000C320821FFF708FF012220464D21FFF7AA
:1015F00003FFD8212046FFF779FF47210246204606
:10160000BDE81040FFF7F8BE10B504468069217FA1
:101610000368DB6A9847A069036800211B68984744
:10162000A069036889211B689847A06903685B6B00
:1016300098472073A069217F03681122DB6B9847CC
:10164000A06903685B699847A073A06903685B6938
:101650009847A06903685B699847E073A0690368CD
:101660005B69984700022082A06903685B6998471C
:10167000238A18432082A06903685B699847A069A0
:1016800003685B699847A06903685B699847000233
:101690006082A06903685B699847638A1843608227
:1016A000A06903685B699847A06903685B6998470C
:1016B000A06903685B699847A06903685B699847FC
:1016C000A06903685B6998470002A082A06903686B
:1016D0005B699847A38A1843A082A06903685B6985
:1016E00098470002E082A06903685B699847E38A33
:1016F0001843E08210BD30B4058A0446C5B1C18AE2
:10170000438A4FF6FF720B44934228BF13461B04D3
:101710009D420DD8B3FBF5F34FF02061B1FBF3F31D
:101720009A4228BF1A4692B2542130BCFFF78CBEB1
:101730004FF4004254212046F7E70000828A40F22D
:10174000DB73534303F58063DB0A0380837B013B38
:10175000112B37D8DFE803F00909092624282A2E9F
:101760003036362C20363636092205238370C38A5C
:10177000DFED156A07EE103A438A07EE903AB8EEAD
:10178000477AF8EE677A27EE267A67EEA67A80ED3A
:10179000017AC0ED027A70470D23E7E70A23E5E7F7
:1017A0000423E3E70223E1E70123DFE70723DDE783
:1017B0000923DBE70323D9E7C37B0BB90623D5E76E
:1017C0000023D3E7FF23D1E70000003C10B5044617
:1017D00091B107F0C9FF608431212046FFF786FEF2
:1017E000C30709D52046FFF7E9FD0028F4D00123FF
:1017F00084F82030002010BD2046FFF705FF94F844
:1018000028302BB92046FFF7D1FE012384F8283079
:101810002046FFF770FF2046FFF790FF0122862148
:10182000FFF7EAFD2088E6E7C3B2001203FA00F0F2
:101830000130704760B10138002330F0FF019AB2E7
:1018400003F1010301D04008F7E740EA022080B22B
:101850007047838C01314FF08040B0FBF3F34FF4BD
:10186000106058434900C9B2800948438009704755
:10187000F8B541F2B0139942054652D9A1F58D54FD
:10188000294B103C9C424CD86021FFF72FFE0146AB
:101890002846FFF7DEFF460806F57A12B2FBF0F2A3
:1018A000FF2A28BFFF220746D2B24B212846FFF766
:1018B000A3FD06F58050B0FBF7F0FFF7BBFF64080F
:1018C00002465A2128462403FFF7BEFD3019B0FB1B
:1018D000F7F0FFF7AFFF5E2102462846FFF7B4FDA1
:1018E00063212846FFF702FE01462846FFF7B1FFB5
:1018F0004708064607F58050B0FBF6F0FFF79AFF61
:101900005C2102462846FFF79FFD3C44B4FBF6F0FD
:10191000FFF790FF612102462846FFF795FD012061
:10192000F8BD0020FCE700BFE0C8100038B560211A
:101930000446FFF7DBFD01462046FFF78AFF5E21E4
:1019400005462046FFF7F5FDFFF76EFF4FF40062F6
:101950000023E0FB0523100B40EA035000F6D800FB
:10196000400038BD70B50D460446FFF7DFFF012D7E
:1019700006462FD01DB1022D4CD0002070BD07228D
:1019800060212046FFF738FD052263212046FFF73E
:1019900033FD382269212046FFF72EFD07227821EA
:1019A0002046FFF729FD052279212046FFF724FD77
:1019B00006227A212046FFF71FFD06227B212046C2
:1019C000FFF71AFD31462046FFF752FF84F82B50EF
:1019D0000120D3E70B2260212046FFF70DFD0922ED
:1019E00063212046FFF708FD782269212046FFF792
:1019F00003FD0B2278212046FFF7FEFC0922792106
:101A00002046FFF7F9FC0A227A212046FFF7F4FC72
:101A10000A22D3E70F2260212046FFF7EDFC0D22BA
:101A200063212046FFF7E8FCB82269212046FFF732
:101A3000E3FC0F2278212046FFF7DEFC0D227921FE
:101A40002046FFF7D9FC0E227A212046FFF7D4FC6E
:101A50000E22B3E738B50D4640F20F110446FFF7EA
:101A600068FD4EF6CC23984240F0BE80002211461D
:101A70002046FFF7C1FC642007F08AFE0122002106
:101A80002046FFF7B9FC012007F080FE07F06CFE4E
:101A90006084E5212046FFF729FDC30740F19B80C4
:101AA000237B002B40F0978055B12E212046FFF775
:101AB0001DFD40F00102D2B22E212046FFF79CFC12
:101AC00006212046FFF735FDDE21A0842046FFF7E2
:101AD00030FD4FF42062E08424212046FFF7B4FC5F
:101AE000022231212046FFF787FC082236212046BA
:101AF000FFF782FC102237212046FFF77DFC0122F0
:101B000039212046FFF778FCFF223E212046FFF7CF
:101B100073FC00223F212046FFF76EFC0222402189
:101B20002046FFF769FC002250212046FFF78CFC7D
:101B3000002252212046FFF787FC382257212046F9
:101B4000FFF75AFC4FF4B47264212046FFF77CFC87
:101B5000C02266212046FFF777FC01227121204632
:101B6000FFF74AFC01227C212046FFF745FC0222B8
:101B70007E212046FFF740FC002282212046FFF70D
:101B80003BFC012277212046FFF736FC8B22812186
:101B90002046FFF731FC4FF4484254212046FFF71E
:101BA00053FC02224F212046FFF726FC022120464B
:101BB000FFF7D8FE4CF250312046FFF759FE2221A4
:101BC0002046FFF7B6FC820092B220461E21FFF7A6
:101BD0003BFC012038BD2046FFF7F0FB00283FF416
:101BE00058AF012384F820300020F3E7F8B507460A
:101BF0000D461646C3B15C6D93F85810A4B1236826
:101C00002046DB6A9847236839461B682046984778
:101C10002368F2B29B6C29462046984723682046E9
:101C20005B6B98470020F8BD0320FCE72DE9F041ED
:101C30000746884616463BB35C6D93F858501CB374
:101C400023682946DB6A20469847236839461B6883
:101C500020469847236800211B6B2046984723683D
:101C60003246DB6B29462046984786420FD1002535
:101C7000EFB2BE4205F101050BD9236820465B692E
:101C8000984708F80700F3E70320BDE8F081062035
:101C9000FBE70020F9E7007870470078704710B53F
:101CA0004FF4206304468380083000F033FB84F84F
:101CB0004C00204610BDF8B51D46037904460F467A
:101CC0007BB11046561CB847014620B1206807F08A
:101CD00049FB3246F5E725B12068BDE8F84007F03A
:101CE00045BBF8BD0A4600230149FFF7E4BF00BF2A
:101CF0009B1C01000A4601230149FFF7DCBF00BF1E
:101D0000971C010003791BB10A22006807F08ABB07
:101D1000704700000F292AD8DFE801F0080B0D0FEB
:101D200011131517191B1D1F212325271149FFF713
:101D3000D9BF1149FBE71149F9E71149F7E7114903
:101D4000F5E71149F3E71149F1E71149EFE71149C7
:101D5000EDE71149EBE71149E9E71149E7E71149D7
:101D6000E5E71149E3E71149E1E71149DFE71149E7
:101D7000DDE700BFD8410300E5410300F341030064
:101D800003420300134203001C4203002B420300E2
:101D90003A4203004F420300A9420300CA42030033
:101DA000E1420300014303001A43030032430300EE
:101DB0004B4303006043030010B50446083000F0B5
:101DC00090FB84F84C0010BD10B50446083000F0BC
:101DD000A2FB84F84C0010BD10B50446083000F09A
:101DE000B5FB84F84C0010BD10B50446083000F077
:101DF000D9FB84F84C0060B107492046FFF772FF19
:101E000094F84C102046FFF785FF04492046FFF761
:101E100071FF94F84C0010BDF544030008670300FF
:101E200010B50446083000F0CEFB84F84C000120C9
:101E300007F0ACFC94F84C0010BD10B50446083017
:101E400000F01EFC84F84C0010BD13B5ADF8042062
:101E50000446019A083000F080FC84F84C0002B07F
:101E600010BD10B50446083000F0E4FC84F84C00C6
:101E700010BD10B50446083000F046FD84F84C0053
:101E800010BD10B50446083000F05AFD84F84C002F
:101E900010BD10B50446083000F08EFD84F84C00EB
:101EA00010BD10B588B004469DF8400006909DF81E
:101EB0003C0005909DF8380004909DF83400039094
:101EC0009DF8300002909DF82C0001909DF82800AC
:101ED000009004F1080000F08BFD84F84C0008B07D
:101EE00010BD13B504468DF8073008300DF1070317
:101EF00000F0E3FA84F84C0002B010BD13B50023E3
:101F000004468DF8073008300DF1070300F0E0FAC1
:101F100084F84C0060B108492046FFF7E3FE94F8CE
:101F20004C102046FFF7F6FE04492046FFF7E2FE7C
:101F30009DF8070002B010BD6F430300086703005F
:101F40000A460C21FFF7DABF10B513780A460C21B8
:101F50000446FFF7C6FF84F84C0010BD10B50123FE
:101F600032220C210446FFF7BCFF84F84C0010BD60
:101F700010B504460430FFF792FE024B2360204662
:101F800010BD00BFEC450300F8B500210446FFF783
:101F9000D7FF94F84C500646B5B126492046FFF7C6
:101FA000A1FE31462046FFF7ADFE23492046FFF74C
:101FB00099FE94F84C102046FFF7ACFE1F492046CE
:101FC000FFF798FE2846F8BD01212046FFF7B8FF2D
:101FD00094F84C5007468DB116492046FFF782FE13
:101FE00031462046FFF78EFE15492046FFF77AFE60
:101FF00039462046FFF786FE1249D7E7482E01D121
:102000000928DFD00B492046FFF76CFE31462046F9
:10201000FFF778FE0A492046FFF764FE394620465E
:10202000FFF770FE042508492046FFF763FE84F899
:102030004C50C7E7274503004745030008670300E6
:102040006F45030089450300B045030070B50446A1
:102050008AB00E460021FFF70CFF01212046FFF752
:1020600010FF2046FFF77AFF00256379AB420CD9B9
:1020700001352046EDB2FFF787FF30B12046FFF76C
:1020800008FF0A2007F082FBEFE76379AB4211D12A
:1020900029492046FFF726FE61792046FFF732FEE8
:1020A00026492046FFF726FE042584F84C50284692
:1020B0000AB070BD22492046FFF714FE294620468B
:1020C000FFF720FE012D0CBF1E491F492046FFF7D8
:1020D00011FE36B11D492046FFF70CFE94F84C5016
:1020E000E5E7082309AA312120468DF82430FFF7BF
:1020F0002BFF054660B116492046FFF7F3FD294640
:102100002046FFF707FE13492046FFF7F3FDCCE713
:102110000123CDE9013309230093CDE90566CDE91B
:10212000036610230C2231462046FFF7BAFE05460F
:102130000028D3D00849DFE7B5430300BD450300BD
:10214000F743030033440300384403003F440300D3
:102150007944030008670300AD44030073B50446E7
:102160000E46FFF741FE054680B137492046FFF78E
:10217000B9FD29462046FFF7CDFD34492046FFF73B
:10218000B9FD84F84C50284602B070BD2046FFF7D8
:1021900013FE054608B12E49E8E7322007F0F6FAAB
:1021A00029462046FFF710FE054608B12949DDE71C
:1021B00001462046FFF710FE054608B12649D5E73F
:1021C00031462046FFF742FF054608B12349CDE7D7
:1021D00036B123492046FFF78DFD94F84C50D2E7E5
:1021E000024603212046FFF71BFE054608B11D49A4
:1021F000BCE74FF0000203212046FFF71EFE054614
:1022000008B11949B2E740F20773ADF80430019AFA
:1022100003212046FFF719FE054608B11349A5E73B
:10222000024601212046FFF71CFE054608B1104971
:102230009CE7002202212046FFF713FE05460028F6
:10224000CBD00C4992E700BFAC3F03000867030006
:10225000DA3F0300084003003440030063400300FA
:102260009D400300D24003000641030039410300B2
:102270006A410300A141030038B5044680F8593093
:10228000416580F85A20C2BB6822FF2B84F8582091
:1022900003D00121184607F017FA94F85900FF28D7
:1022A00003D094F85A1007F041FA154BE365154B2B
:1022B000C4E9183404F15C03E360134B0021251DCD
:1022C000C4E904312176C4E90711C4E9091128469B
:1022D000FFF744FF84F8500060B10C492846FFF72F
:1022E00001FD94F850102846FFF714FD08492846D0
:1022F000FFF700FD94F8500038BD6922C5E700BF24
:10230000ED1B01002D1C01000000FFFF7C3F0300BE
:102310000867030008B52C22002120F025FF0422C5
:102320008271002008BD30B40D4611461A4603687C
:102330001C6824B12846A4469B6830BC6047022034
:1023400030BC704730B40D4611461A4603685C68CD
:1023500024B12846A4469B6830BC6047022030BCAC
:102360007047032907B511D882798A4210D081714C
:10237000090101F030018DF8071001230DF107026A
:102380007F21FFF7D0FF03B05DF804FB0320FAE7DD
:102390000020F8E72DE9F04385B099469DF8348098
:1023A0008DF80620B8F1000F14BF6FF07F030023F3
:1023B000194304468DF807100321FFF7D2FF0123CC
:1023C0000DF1070213212046FFF7ADFF00286FD162
:1023D00003212046FFF7C5FF01230DF1060214215A
:1023E0002046FFF7A0FF002862D19DF808309DF835
:1023F00038209DF8307003F0200382F0010263F072
:102400007F0362F345138DF808300546BFB2ABB2C7
:10241000BB424DD2B8F1000F3DD003212046FFF75B
:10242000A0FF012302AA15212046FFF77CFF002808
:102430003ED1064600212046FFF793FF012303AA61
:1024400017212046FFF77EFF9DF80C3040F2E73160
:102450001A46C3F380138E4288BF43F00103DB07A3
:1024600006F10106E6D5C2F300138E4294BF1E4664
:1024700043F00106FEB9B8F1000F0AD0032120464F
:10248000FFF76FFF012309EB050217212046FFF735
:1024900059FF0135BBE703212046FFF762FF012307
:1024A00009EB050216212046FFF73DFF0028B4D0B6
:1024B00005B0BDE8F0830120FAE730B585B001240E
:1024C0000025CDE901540094FFF764FF05B030BD4D
:1024D0001FB50124CDE901440094FFF75BFF04B070
:1024E00010BD13B504460021FFF73BFF012301AAED
:1024F00006212046FFF726FF58B99DF8043043F027
:1025000080038DF8043001AA012306212046FFF73D
:102510000AFF02B010BD37B504460D460021FFF793
:1025200020FF012301AA06212046FFF70BFF58B91F
:102530009DF8043065F386138DF8043001AA012359
:1025400006212046FFF7EFFE03B030BD37B5044645
:102550000D460021FFF705FF012301AA06212046B1
:10256000FFF7F0FE58B99DF8043065F345138DF878
:10257000043001AA012306212046FFF7D4FE03B050
:1025800030BD70B505460C4651B10021FFF7E9FE9C
:102590002246284601230021BDE87040FFF7D2BE45
:1025A000032070BD07B500230DF107018DF807303A
:1025B000FFF7E7FF20B99DF80730EA2B18BF04208A
:1025C00003B05DF804FB11F0130F2DE9F34106464B
:1025D0000C46154652D00021FFF7C3FE00284AD111
:1025E000012301AA05213046FFF7ACFE002842D1A5
:1025F00014F001081EBF9DF8043065F345138DF8F3
:10260000043014F002071EBF9DF8043065F3041374
:102610008DF8043014F010041EBF9DF8043065F3EB
:1026200086138DF8043001AA012305213046FFF7F7
:102630007AFE00BB012301AA05213046FFF782FE86
:10264000C8B9B8F1000F06D09DF80400C0F34010DF
:10265000401B18BF012037B19DF80430C3F30013AD
:10266000AB4218BF012034B19DF80430C3F380138E
:10267000AB4218BF012002B0BDE8F0810720FAE7A5
:1026800011F0030F2DE9F3410746884663D011F09E
:102690000104C2F381062BD0022102F00305FFF7EB
:1026A00060FE0123044601AA14213846FFF74AFEC2
:1026B0009DF8043065F3420304438DF8043001AA09
:1026C000012314213846FFF72EFEE4B20443012310
:1026D00001AA14213846FFF735FE9DF80430E4B214
:1026E0000443C3F34103E4B2AB4218BF44F0010416
:1026F00018F0020F2BD002213846FFF732FE0123DB
:102700001946054601AA3846FFF71CFE9DF804301D
:1027100066F3420328438DF804300123194604432D
:1027200001AA3846FFF7FFFDE4B20123044319462E
:1027300001AA3846FFF706FE9DF80430E4B2C3F361
:1027400041030443B342E4B201D044F00104204603
:1027500002B0BDE8F0810724F9E72DE9FF41ADF8AB
:1027600004208A0707460D4662D011F001049DF847
:1027700005602BD002219DF80480FFF7F2FD0123B4
:10278000044603AA14213846FFF7DCFD9DF80C30FF
:1027900068F3C50304438DF80C3003AA0123142108
:1027A0003846FFF7C0FDE4B20443012303AA142115
:1027B0003846FFF7C7FD9DF80C30E4B20443C3F37D
:1027C000C203E4B2434518BF44F00104AB072BD564
:1027D00002213846FFF7C5FD01231946054603AA25
:1027E0003846FFF7AFFD9DF80C3066F3C50328436C
:1027F0008DF80C3001231946044303AA3846FFF72D
:1028000092FDE4B201230443194603AA3846FFF7B8
:1028100099FD9DF80C30E4B2C3F3C2030443B34204
:10282000E4B201D044F00104204604B0BDE8F081D8
:102830000724F9E7F7B516468A0705460F4661D023
:1028400011F001042BD00221FFF78BFD0123044678
:1028500001AA14212846FFF775FD9DF8043066F3A0
:10286000000304438DF8043001AA012314212846F3
:10287000FFF759FDE4B20443012301AA14212846BD
:10288000FFF760FDE4B20443E4B29DF8043026B1E2
:10289000DB0704D444F0010401E0D807FAD4B907F7
:1028A0002DD502212846FFF75CFD01231946074676
:1028B00001AA2846FFF746FD9DF8043066F30003A1
:1028C00038438DF8043001231946044301AA2846F1
:1028D000FFF729FDE4B201230443194601AA284663
:1028E000FFF730FDE4B20443E4B29DF8043026B1B2
:1028F000DA0704D444F0010401E0DB07FAD42046EF
:1029000003B0F0BD0724FAE737B50D4600210446B1
:10291000FFF727FD90B9012301AA0F212046FFF7F9
:1029200011FD58B99DF8043065F341038DF804306A
:1029300001AA01230F212046FFF7F5FC03B030BDAB
:1029400037B50D4600210446FFF7DEFF90BB03219B
:102950002046FFF706FD68BB01236A46194620465C
:10296000FFF7F0FC30BB9DF8003023F01F0343F06D
:1029700017038DF8003001236A4619462046FFF7F9
:10298000D2FCB8B901462046FFF7EBFC90B9012311
:1029900001AA03212046FFF7D5FC58B99DF8043061
:1029A00065F345138DF8043001AA01230321204665
:1029B000FFF7B9FC03B030BD13B500210446FFF7A3
:1029C000D0FC90B9012301AA03212046FFF7BAFCED
:1029D00058B99DF8043043F002038DF8043001AA81
:1029E000012303212046FFF79EFC02B010BD00002A
:1029F0002DE9F04F85B003290446934698469DF88B
:102A00003C6053D82A4B13F801A02A4B5F5C2A4B39
:102A10005D5C2A4B13F801900321FFF7A2FC00280C
:102A200041D19DF804306BF3060366F3C7138DF8AC
:102A3000043001AA012351462046FFF774FC90BBE5
:102A400056B99DF850308DF80C3003AA0123494641
:102A50002046FFF768FC30BB012302AA3946204616
:102A60008DF80880FFF75FFCE8B99DF80C309DF801
:102A7000382062F303039DF8402062F3C7139DF8EA
:102A8000442062F345139DF8482062F304139DF837
:102A90004C2062F386138DF80C3003AA01232946DB
:102AA0002046FFF740FC05B0BDE8F08F0320FAE7B1
:102AB000F8450300FC450300F0450300F44503001E
:102AC0001FB5C0680391036801220092DC6803A966
:102AD0000DF10B03A0479DF80B0004B010BDF8B535
:102AE000427A036804460E46CFB29B680D0A62B96B
:102AF00039469847236860F307069B6829462046B5
:102B0000984760F30F26B0B2F8BD2946984723686E
:102B100060F30F269B6839462046984760F3070606
:102B2000F1E713B5C06803680092DC680B46A04764
:102B300002B010BD70477047C06810B103685B6891
:102B400018477047704700002DE9FF416F4687E83E
:102B50000600C3689DF804609DF8058004460D4694
:102B600013B90368DB6A98476368AB4204D1BDF8C8
:102B7000042023899A421ED0104B9D420BD9029308
:102B80008DF80C608DF80D8004AB13E90300054649
:102B9000CEB2C1F3072832460821E06807F06BFB8C
:102BA0002946E06807F084FB8DF804608DF8058005
:102BB000BB886560238104B0BDE8F081006CDC0255
:102BC00010B51421044618F0F9FE204610BDC36864
:102BD00037B504467BB9302018F0C6FE4FF0FF33FE
:102BE0000546009394F9102094F9123094F91110CD
:102BF00007F008FBE56003B030BD00000848094B52
:102C00000360002343604FF48073038140F2067336
:102C10000382054A05490523837418F085BC00BF6B
:102C2000BCD200100846030000010010452B010033
:102C3000704710B55C21044618F0C0FE204610BD58
:102C40000A4A02601F210022C0E90921C0E90B22C3
:102C50008286C0E90E220264A0F8442080F8462053
:102C6000C0E91222C0E91522704700BF44460300A4
:102C70008B6A8362CB6AC3620B6B036391F8343057
:102C800080F8343091F8353080F835308B6B8363C1
:102C9000CB6BC3630B6C0364B1F84430A0F84430D1
:102CA00091F8463080F846308B6C8364CB6CC364FB
:102CB000B1F85030A0F850304B6D43658B6D836593
:102CC000704708B5FFF7D4FF08BD70B5054686B05C
:102CD00068460E4603F008FDEC6C6846002CCCBF3D
:102CE0000234002403F03FFD0230241AA86A24189D
:102CF00008D4AC62AE64684603F035FDE864012098
:102D000006B070BD0020FBE710B5036C1BB190F856
:102D1000464084B90233941C1B1B846A1B1958BF9C
:102D2000C0E90F124FF000045BBF80F84640836299
:102D30002046012010BD0433EDE730B5046C1CB112
:102D400090F846508DB902341D1D641B856A6419C4
:102D50005FBFC0E90F230123A0F8441080F846307C
:102D600056BF84620020184630BD0434ECE730B50D
:102D7000846D002CCCBF043400241D1D641B856AA7
:102D800064195DBFC0E91523A0F8501084620020CB
:102D900058BF012030BD70B50546806B0E4688B126
:102DA000047814B1FDF776FC841C3046FDF772FC04
:102DB0000230241AA86A24185DBFAC62AE630120F9
:102DC000002070BD0446F0E790F83530826A002B91
:102DD0000CBF6FF0020300239B185FBF83620123C7
:102DE00080F8353080F8341054BF18460020704702
:102DF00004307047406A704790F83500704738B526
:102E00000446406AC0F11F039342154608DB0430B4
:102E1000204420F09BF9626A2A446262012038BD96
:102E20000020FCE770B50446406A0E461D46114678
:102E30000233C0F11F029A420FDB23186A1C1A7179
:102E4000821C0630626220445E712A4620F07EF9C0
:102E5000636A2B446362012070BD0020FCE770B5FB
:102E600086B00546684603F03FFC684603F07BFCED
:102E7000022804466846CCBF0626022603F071FCF1
:102E80002346024631462846FFF7CCFF06B070BD08
:102E900013460A46FF21FFF7C5BF30B589B0054686
:102EA00010461C46ADF800101A4601460DF102000E
:102EB00020F04CF9A31C6A46FF212846FFF7B2FF19
:102EC00009B030BD30B589B0054610461C46ADF896
:102ED00000101A4601460DF1020020F037F9A31C3C
:102EE0006A4616212846FFF79DFF09B030BD07B599
:102EF00001238DF807100DF107021946FFF792FF25
:102F000003B05DF804FB70B5054610460E46144646
:102F1000FDF7C0FB2246034631462846BDE8704017
:102F2000FFF780BF70B5054608460C46FDF7B2FBBB
:102F30001D2807D9224628461D230821BDE87040D8
:102F4000FFF770BF224628460921BDE87040FFF711
:102F5000DABF38B5C16A00230546436229B1026B66
:102F60001AB1BDE83840FFF74ABF95F835307BB35A
:102F700095F834102846FFF7BAFF0446A96C21B132
:102F80002846FFF76CFF0440E4B2E96B61B12B6C9B
:102F900053B195F84620EAB10A462846B5F84410E0
:102FA000FFF77BFF0440E4B26A6D42B1AB6D33B111
:102FB000B5F850102846FFF785FF0440E4B2A96B2E
:102FC00021B12846FFF7AEFF0440E4B2204638BDE9
:102FD0000124D3E71A462846FFF75AFFE2E700002C
:102FE0000C4B10B504460360406838B100F0B2FAEB
:102FF00020B9606810B103685B689847A06838B171
:1030000001F023F820B9A06810B103685B68984705
:10301000204610BD5446030010B50446FFF7E0FFFC
:1030200020460C2118F0CAFC204610BD064B10B5F6
:10303000C0E9003100230446836011B1084600F066
:1030400084FA204610BD00BF54460300064B10B55D
:10305000036000230446C0E9013111B1084600F0C5
:10306000EFFF204610BD00BF544603002DE9F34199
:103070000446542098460E46174618F075FC9DF8F5
:1030800020300093054643463A46314600F03CFB6B
:1030900029462046FFF7CAFF204602B0BDE8F0816E
:1030A0000346406808B100F065BA986808B100F0BE
:1030B000F1BF70470346406808B100F05DBA9868F8
:1030C00008B100F0E9BF704710B4446824B120464D
:1030D0005DF8044B00F052BA806818B15DF8044BFB
:1030E00000F0DCBF5DF8044B70470346406808B150
:1030F00000F0A4BA986808B101F024B8704740689D
:1031000008B100F0A8BA70474068704770470000E7
:10311000024B186803681B69184700BFE4490300A5
:10312000024B186803685B69184700BFE449030055
:1031300010B4054B01791B681A685469421D184682
:1031400023465DF8044B18473848030010B50B4B75
:103150000446186821790368621D9B6A98474FF6F8
:10316000FF739842014606D0054B18680268BDE817
:103170001040926A104794F94B0010BD3848030084
:10318000E449030010B54C21044618F017FC204612
:1031900010BD000010B58AB04B7903938B79029370
:1031A000CB7901930B7A009304464B7A8A7A0549CE
:1031B00005A818F00DFE05A9204606F09EF9204648
:1031C0000AB010BD5C46030007B50023062269461D
:1031D00005300093ADF804301FF0AAFF003018BF8F
:1031E000012003B05DF804FB08B502790B799A421F
:1031F00008D10622053105301FF09AFFB0FA80F0A1
:10320000400908BD0020FCE710B50A4B04461868C9
:1032100003681B699847236820461B6A984740B19A
:10322000054B217918680368621D5B6BBDE810408F
:10323000184710BDE44903003848030008B5027977
:103240000B799A4208D10622053105301FF070FF34
:10325000003018BF012008BD0120FCE7064A0260CB
:103260007F210022C272027380F84B10C0F8052043
:10327000A0F80920704700BF8446030010B5017113
:103280000021C1720173064C04607F2180F84B104D
:103290001168C0F805109288A0F8092010BD00BF81
:1032A00084460300F8B50F461249064606F025F994
:1032B000397B0024A1421ADD3B19A21C5D7B9B7B5C
:1032C000083B012B05F1FF350FD82946304606F0A3
:1032D000EDF80F343C440027BD4208DD14F8011B13
:1032E000304606F05DF90137F6E7AC18E2E7304604
:1032F000F8BD00BF086703002DE9F04F85B0884690
:1033000022490192834606F0F8F80024A14698F875
:103310000C30A34235D908EB0403671CFFB25E7B77
:1033200008EB07035B7B9A1E012A25D9063B012B7C
:1033300024D8102505FB05F30234009358FA84F4D1
:103340004FF0000A731EEAB2534517DD0199894513
:103350000CD1114604F10D000393029203F006FA1A
:103360000146584606F0F4F8DDE90223009909F118
:103370000109AA440C44E7E70225DBE73E44F4B226
:10338000C5E7584605B0BDE8F08F00BF08670300E9
:1033900010B500220446FFF7AFFF204610BD08B568
:1033A000134602798A4208D10622194605301FF0D9
:1033B000BFFEB0FA80F0400908BD0020FCE710B560
:1033C0000446012000FA01F1E1722273194604F16A
:1033D0000D001FF0BBFE9DF9083084F84B3010BD86
:1033E00070B50D461146C27A42F010020446C27210
:1033F000007B0D302A4620441E461FF0A7FE237B8B
:1034000084F84B601D44257370BDC37A13F0180F08
:1034100014BF0120002070470C4B10B50446036018
:10342000406838B100F096F820B9606810B10368C0
:103430005B689847A06838B100F007FE20B9A06823
:1034400010B103685B689847204610BDB84603007A
:1034500010B50446FFF7E0FF20460C2118F0AEFA45
:10346000204610BD064B10B5C0E9003100230446CC
:10347000836011B1084600F068F8204610BD00BF17
:10348000B846030070B5044630200E4618F06CFABA
:103490003146054600F00EFD29462046FFF7E2FFC3
:1034A000204670BD0346406808B100F045B89868F2
:1034B00008B100F0C3BD0148704700BF08670300B2
:1034C000406808B100F034BD7047406870470000A4
:1034D00030B585B0012504460095042392B2FFF76C
:1034E000C5FD074B23600023039304222B4603A949
:1034F0002046FFF7E9FD034B2360204605B030BDB1
:103500005C3B03006C3B030070470020704710B524
:103510002021044618F052FA204610BD10B5054B84
:10352000044640F8043B03F0DFF80023E361204643
:1035300010BD00BFC8460300043003F010B90430CA
:1035400003F00FB9043003F00EB9C3690133C3614E
:1035500018467047C369013BC3611846704742F67D
:103560000300704790F82000704790F821007047E2
:10357000406A7047806A7047808D7047F8B515467D
:10358000426AAA42A8BF2A460446828592B2806A4D
:103590000E461FF0DBFD94F82E300BB1636AA38555
:1035A00094F8203098060DD5A28E91070AD51F4BAE
:1035B000218E186803685D6D0131A38DA26A89B2FE
:1035C000A847F8BDDA0609D5A38EDB0706D5174B49
:1035D000218E1868036801311D6DEEE794F83230D2
:1035E0000BB90120EDE7124B1868036821465B6AAE
:1035F0009847104B1C68236801461F6B32462B46C8
:103600002046B847094B186803681B6B9847002889
:10361000E7D1094B186803689B6898470028E0D0F9
:10362000236820465B6D9847DBE700BF38480300FE
:1036300084490300044703003849030038B50546B0
:1036400008460C46FDF726F8214602462846BDE806
:103650003840FFF793BF0346002290F8330083F809
:103660003320704701867047008E7047008E01300E
:1036700080B27047806B7047836B994208D2C36BEE
:103680000022914202D05B680132FAE71868704765
:103690000020704730B5114B03600B7903710B4666
:1036A00001F1490453F8052FC0F805209B88A0F8C4
:1036B0000930CB7AC3720B7B037300F10D0201F169
:1036C0000D0353F8045B42F8045BA342F9D11B8855
:1036D000138091F94B3080F84B3030BD84460300A5
:1036E00038B5044608200D4618F03EF90023C0E91D
:1036F000005363682BB960602368A06001332360C6
:1037000038BDA3685860F7E770B504461D461646F5
:10371000FFF704FFB5F5007F194B23602B46A8BFC8
:103720004FF40073002163629DF810302684A18558
:1037300084F82E302163A186C4E90E112164102281
:1037400004F144001FF010FD16F0300F11D02C20B2
:1037500018F00AF90B490646022304F1340200F07E
:10376000D7F83046FFF7F1FE314604F13800FFF795
:10377000B7FF28461FF0CCFCA062204670BD00BFFA
:10378000E4460300D446030070B5044640680025B3
:103790002368AB4206D94668082118F00FF90135B5
:1037A0003046F5E70023C4E90033A36070BD000094
:1037B000154B70B5044603600025A36B9D4212D2E1
:1037C000E36B0022954202D05B680132FAE71E6883
:1037D0003046FFF7BFFE20B91EB1336830465B6844
:1037E00098470135E9E704F138052846FFF7CCFF93
:1037F000A06A08B11FF094FC2846FFF7C5FF2046D9
:10380000FFF782FE204670BDE446030010B5044673
:10381000FFF7CEFF2046542118F0D0F8204610BD07
:10382000F0B5C56C97B0044617461E467DB103A897
:10383000FFF730FF21466846FFF7F8FB694603A80B
:10384000A8476846FFF7CCFB03A8FFF75FFCA16A17
:103850001C9A394430461FF079FC17B0F0BD70B5A2
:1038600004460E461146012280F8332096B01A46CF
:10387000FFF784FE256D85B1314603A8FFF70AFFE7
:1038800021466846FFF7D2FB694603A8A847684669
:10389000FFF7A6FB03A8FFF739FC16B070BD30B5E3
:1038A000838E02F00302934297B0044617D08286BB
:1038B000002A0CBF44224022024455687DB103A86F
:1038C000FFF7E8FE21466846FFF7B0FB694603A80C
:1038D000A8476846FFF784FB03A8FFF717FC17B05B
:1038E00030BD4FF42450704710B5034B03600446BD
:1038F000FFF70AFE204610BDF846030010B5044647
:10390000FFF7F2FF20462C2118F058F8204610BD92
:1039100070B504461D461646FFF700FE064B2360B1
:10392000B5F5007FA8BF4FF40075002326626562DD
:103930002385204670BD00BFF8460300406A7047EB
:10394000006A704701857047064B1868036810B518
:10395000DB689847044B18680368BDE81040DB68D3
:10396000184700BF84490300E4490300024B18686C
:1039700003681B69184700BFE4490300024B18683D
:1039800003685B69184700BFE449030010B5064BA4
:10399000186803681B699847044B18680368BDE8FA
:1039A00010401B6B184700BFE44903003848030070
:1039B00010B5064B186803681B699847044B1868D4
:1039C0000368BDE81040DB6B184700BFE449030003
:1039D00038480300024B186803689B6C184700BF07
:1039E000384803000C30704768307047024B186845
:1039F00003681B69184700BF84490300024B18681D
:103A000003685B69184700BF84490300024B1868CC
:103A100003689B69184700BF84490300024B18687C
:103A200003681B69184700BF38490300024B186838
:103A300003685B69184700BF38490300024B1868E8
:103A400003685B6A184700BF3849030010B5074B8D
:103A50000446186803681B699847054B19680B688A
:103A60002046DB6C9847204610BD00BFE4490300A8
:103A70003848030010B5074B0446186803681B69F3
:103A80009847054B19680B6820469B6A9847204663
:103A900010BD00BFE449030038490300024B186819
:103AA0000368DB6A184700BF38490300024B1868F7
:103AB00003689B69184700BF384C0300024B186825
:103AC0000368DB69184700BF384C0300024B1868D5
:103AD00003681B6B184700BF38490300024B186886
:103AE0000368DB68184700BF38480300024B1868BA
:103AF00003681B6A184700BF384C0300024B186864
:103B000003685B6A184700BF384C0300024B1B6810
:103B1000C3F8F010704700BFE4490300024B1B6874
:103B2000C3F8F810704700BFE4490300024B1B685C
:103B3000C3F8F410704700BFE4490300024B1B6850
:103B4000C3F8EC10704700BFE4490300024B1B6848
:103B5000C3F8FC10704700BFE4490300024B1B6828
:103B6000C3F80011704700BFE4490300024B186816
:103B70000368D3F89C301847E4490300024B1868E7
:103B80000368D3F8A0301847E4490300F0B52A4B86
:103B90001D682B6887B004469B68284698470646F0
:103BA00020B923682046DB6898470DE0642005F0C3
:103BB000EDFD2B6828469B699847064638B1236877
:103BC0002046DB6898470026304607B0F0BD05AABE
:103BD0002B6801920DF112020092DF6904AA0DF127
:103BE0000E030DF10D012846B8470028D9D12B68E6
:103BF0004FF0FF32D96A28466FF0404388470028CB
:103C0000CFD12B6840F2FF32196B2846002388473A
:103C100006460028D3D12B680DF10F025B6B0DF126
:103C20001601284698470028BBD1044B1868036842
:103C30009B6898470126C7E7E449030084490300CD
:103C400010B58CB000230593ADF81830104B044626
:103C50001868036805A91B6A98479DF814300393F8
:103C60009DF8153002939DF8163001939DF817309A
:103C700000939DF819209DF81830064907A818F000
:103C8000A7F807A9204605F038FC20460CB010BD67
:103C9000E44903005C4603000C30FFF716B870B52A
:103CA0000368044608469D6AFFF7FCFB2B46014665
:103CB0002046BDE8704018470C30FFF758B80C306C
:103CC000FFF722B80C30FFF738B86830FFF763B859
:103CD0006830FEF7F6BF10B500F10C042046FEF781
:103CE000F0FF2046FFF788F828B920460621BDE8F6
:103CF0001040FFF769B810BD2DE9F74300F10C053E
:103D0000044668342846FFF724F92046FFF721F9D6
:103D10000E4B1E6833682846DF68FFF769F8804657
:103D20002846FFF767F805462046FFF761F8814609
:103D30002046FFF75FF8C0B200904B46EAB241461A
:103D40003046B84703B0BDE8F08300BF38490300F0
:103D50007FB5094B1C682368164601A89D6905F0CC
:103D6000EDFB324601A92046A847044601A805F00C
:103D70007EFB204604B070BD384903007FB5094B77
:103D80001C682368164601A8DD6905F0D7FB32469A
:103D900001A92046A847044601A805F068FB204673
:103DA00004B070BD384903007FB5094B1C68236817
:103DB000164601A81D6A05F0C1FB324601A920463E
:103DC000A847044601A805F052FB204604B070BD88
:103DD0003849030002290BBF044B054B18681868CB
:103DE0000BBF036803685B6B9B6D18473849030082
:103DF0003848030038B50446084B44F80C3B0546E8
:103E00002046FEF71DFF05F16800FEF719FF0621A9
:103E10002046FEF7D9FF284638BD00BF10470300F3
:103E200010B5054C2046FFF7E5FF2046034A04493C
:103E3000BDE8104017F078BBD0D200100001001090
:103E4000453E010010B5064B044640F8683BFEF7BE
:103E5000EFFE04F10C00FEF7EBFE204610BD00BFA4
:103E60001047030010B50446FFF7ECFF2046C421BD
:103E700017F0A4FD204610BD10B50B4B19680B6858
:103E800094B001A8DB6C984701A8FFF79DF948B1F1
:103E900001A8FFF75BF9044601A8FFF737F92046B0
:103EA00014B010BD7F24F7E7384803004FF42050CA
:103EB0007047000010B50446FFF730FB044B236049
:103EC0000023C4E90833C4E90A33204610BD00BF0B
:103ED000DC470300018442847047008C7047408CAB
:103EE0007047406A7047436A994208D2836A002249
:103EF000914202D05B680132FAE7186870470020EF
:103F0000704738B5044608460D46FFF71EFB0820EB
:103F100017F02AFD0023C0E90053A36A2BB9A06261
:103F2000636AE0620133636238BDE36A5860F7E7B1
:103F300010B504460846FFF7E7F8014620B12046D1
:103F4000BDE81040FFF7DDBF10BD70B50446406806
:103F500000252368AB4206D94668082117F02EFDDC
:103F600001353046F5E70023C4E90033A36070BD96
:103F700010B504462430FFF7E8FF0023236210BD8C
:103F8000134B70B5044603600025636A9D4212D24C
:103F9000A36A0022954202D05B680132FAE71E68EC
:103FA0003046FFF7D7FA20B91EB1336830465B6858
:103FB00098470135E9E72046FFF7DAFF04F12400CE
:103FC000FFF7C3FF2046FFF79FFA204670BD00BFF2
:103FD000DC47030010B50446FFF7D2FF204630212E
:103FE00017F0ECFC204610BD10B5044B044640F819
:103FF000043B05F03CFA204610BD00BFF04703002B
:1040000010B50446FFF7F0FF2046142117F0D6FC48
:10401000204610BD38B504462546074B45F8043BFD
:104020000846114602F0A2FB0146284605F065FA53
:1040300000232361204638BDF047030040687047E5
:10404000036901330361184670470369013B03614B
:104050001846704738B504461D46FFF7DBFF0C4B8A
:104060002360BDF81030E382BDF814302383BDF81F
:10407000183063834FF480720023A582C4E90733AC
:10408000A284C4E90A33C4E90C33204638BD00BF1A
:1040900000480300C0697047006A70472DE9F0438B
:1040A0009846274B1E68336885B004460F469B6BC5
:1040B000818A30469146984718B9002005B0BDE87E
:1040C000F0833368A18A5B6C30469847033885B229
:1040D0004D45A8BF4D462946E0691FF03DF9E06116
:1040E0000028EAD0237E1A071CD5B8F1000F19D09A
:1040F00003AA33680192EAB20092D3F86080628B1F
:10410000A18A3B463046C0470028D7D09DF80C30E6
:10411000012BD2D02A463946E0691FF017F82562F4
:104120000120CBE75B07C8D53368A18AEAB20092C9
:10413000D3F86480628B3B463046C047EAE700BF55
:104140003848030070B50546084616460C46FCF78D
:10415000A1FA3346024621462846BDE87040FFF7E3
:104160009DBF408B704738B5044608460D46FFF7A3
:1041700067FF082017F0F8FB0023C0E90053E36A4B
:104180002BB9E062A36A20630133A36238BD236BBD
:104190005860F7E770B50446406800252368AB42D5
:1041A00006D94668082117F009FC01353046F5E7C5
:1041B0000023C4E90033A36070BD03688B4208D9B3
:1041C000436800228A4202D05B680132FAE718682D
:1041D0007047002070470000F8B50546134B45F8BE
:1041E000283B04460026A36A9E420ED2314628464A
:1041F000FFF7E3FF0746FFF728FF20B91FB13B6831
:1042000038465B6898470136EDE72846FFF7C2FF5E
:10421000E06918B11EF084FF0023E3612846FFF730
:10422000B9FF2046FFF7E0FE2046F8BD0048030036
:1042300010B50446FFF7D0FF2046382117F0BEFB2B
:10424000204610BD70B50446036296B00D46C069A5
:10425000194616461FF080F8E06110B9206216B0CA
:1042600070BD01233146A384226A1EF06FFF666B86
:10427000002EF4D0194B03932B798DF810302B4678
:1042800005F1490153F8052FCDF811209B88ADF8B1
:104290001530EB7A8DF817302B7B8DF818300DF137
:1042A000190205F10D0353F8040B42F8040B8B427D
:1042B000F9D11B88138095F84B308DF85730214683
:1042C0006846FEF7C3FE694603A8B0476846FEF796
:1042D00087FE03A8FEF71AFFC1E700BF844603006C
:1042E000074B10B504460360806918B11EF018FF33
:1042F0000023A3612046FFF777FE204610BD00BFD4
:104300001048030010B50446FFF7EAFF20462021BD
:1043100017F054FB204610BD38B504461D46FFF784
:1043200079FE054B2360BDF81030E3820023A5829F
:10433000C4E90633204638BD10480300034A026032
:104340000022C0E90122C260704700BF204803007C
:1043500038B5044608460D46FFF772FE082017F0F0
:1043600003FB0023C0E90053A3682BB9A060636876
:10437000E0600133636038BDE3685860F7E7406888
:1043800070474368994208D283680022914202D064
:104390005B680132FAE7186870470020704770B513
:1043A0000446406800252368AB4206D946680821C8
:1043B00017F004FB01353046F5E70023C4E900336C
:1043C000A36070BD70B50646002473689C4212D28B
:1043D000B3680022944202D05B680132FAE71D689C
:1043E0002846FFF732FE20B91DB12B6828465B68CE
:1043F00098470134E9E7301DFFF7D1FF70BD000099
:1044000038B50446054B44F8043B0546FFF7DAFF90
:104410002046FFF7C4FF284638BD00BF20480300F0
:1044200010B50446FFF7ECFF2046102117F0C6FA3E
:10443000204610BD38B504461D46FFF7EBFD084B7E
:104440002360BDF81030E382A582064904F118000C
:1044500005F053F80023C4E90933E362204638BD70
:104460003048030008670300808A7047C08A70479D
:10447000406A7047436A994208D2836A0022914297
:1044800002D05B680132FAE7186870470020704775
:1044900038B5044608460D46FFF7D2FD082017F050
:1044A00063FA0023C0E90053A36A2BB9A062636AD0
:1044B000E0620133636238BDE36A5860F7E770B5C4
:1044C0000446406800252368AB4206D946680821A7
:1044D00017F074FA01353046F5E70023C4E90033DC
:1044E000A36070BD154B70B5044603600025636A78
:1044F0009D4212D2A36A0022954202D05B6801322B
:10450000FAE71E683046FFF7A0FD20B91EB13368F8
:1045100030465B6898470135E9E704F124052846F1
:10452000FFF7CDFF2846FFF7CAFF04F1180004F09B
:104530009EFF2046FFF758FD204670BD304803001F
:1045400010B50446FFF7CEFF2046302117F036FAAB
:10455000204610BDA0F8A8107047C0F8AC107047F6
:104560002DE9FF41013A13F8014BD6B20268CDE9BB
:104570000233526C05460F4690470C2C02462968C0
:10458000029B79D02FD8052C69D01AD8022C60D084
:104590000BD8012C53D006230093D1F8DC60002304
:1045A000224639462846B0476EE0032C54D0042CEE
:1045B000F1D10093D1F89440334639462846A047BC
:1045C00062E0092C52D007D8062C4BD0082CE2D13F
:1045D0000093D1F8A440EFE70A2C4DD00B2CDAD190
:1045E000D1F8B4402DE0162C51D00FD8112C40D06A
:1045F00005D8102CCFD10093D1F8B840DCE7122CAD
:1046000018D0132CC7D1D1F8C8401AE01D2C04D003
:104610000CD8182C3FD01B2CBDD10093D1F8D480DE
:104620003346224639462846C0472DE01E2C36D058
:10463000522CB0D1CDE90063D1F8C46020E0D1F8AC
:104640008440324639462846A44604B0BDE8F041CD
:104650006047D1F88840F4E7D1F89040F1E7D1F80D
:104660009C40EEE70093D1F8A040A5E7D1F8AC401C
:10467000E7E7D1F8C040E4E7CDE90063D1F8B060E6
:10468000234639462846B04704B0BDE8F081009380
:10469000D1F8CC4090E70093D1F8D0408CE7D1F826
:1046A000D840CEE7B0F8B0204FF6FF739A4209D158
:1046B000B0F8CC30934205D1B0F8E800C01A18BF6A
:1046C000012070470120704708B503689B6A98472E
:1046D0004FF6FF73C01A18BF012008BD38B50B4B49
:1046E0000546186803681B690C469847B5F8B03052
:1046F000A34209D0B5F8CC30A34205D0B5F8E80004
:10470000031B5842584138BD0120FCE7E44903002F
:1047100090F9C830002B07DB90F9E430002B03DB65
:1047200090F80001C009704701207047B0F8B03020
:104730008B420ED0B0F8CC308B420CD0B0F8E830C1
:104740008B420AD102231C2202FB0303B3F8C000F0
:1047500070470023F7E70123F5E7172070471FB5DF
:10476000ADF80D200268009302248DF80C4003235D
:10477000D2F8F04003AAA04704B010BD1FB5ADF8B1
:104780000920ADF80B30069A0368009204248DF8D6
:10479000084002AAD3F8F0400523A04704B010BD9A
:1047A0001FB5ADF80B30BDF81830ADF80920ADF8E5
:1047B0000D30079A0368009210248DF8084002AA71
:1047C000D3F8F0400723A04704B010BD1FB5ADF8E3
:1047D0000B30BDF81830ADF80920ADF80D30079A50
:1047E0000368009208248DF8084002AAD3F8F0402C
:1047F0000723A04704B010BD012380F8043170479F
:104800001FB5ADF80A309DF818308DF80C30084B04
:104810008DF8092001208DF80800186802AA0368A5
:104820000092D3F8944004220523A04704B010BDA1
:10483000E449030001299CBF00EB8100C0F81C2162
:1048400070471FB5ADF80D20026800930A248DF85B
:104850000C400323D2F8F04003AAA04704B010BDD7
:1048600030B5B0F8B0308B421BD0B0F8CC308B42B2
:1048700019D0B0F8E8308B4217D102231C2101FB7C
:104880000301B431941D11F8015B04F801599442FD
:10489000F9D11C2202FB0303012093F8B3302370EB
:1048A00030BD0023EAE70123E8E70020F8E7000035
:1048B0002DE9F843DFF8648000F1B40400F5847555
:1048C00000264FF6FF774FF0170934F8041CB94261
:1048D0001BD0D8F800000368D3F898309847A0B9E7
:1048E00004F8020C04F8010C2060A080C4F8060053
:1048F0006081206924F8047C0136A4F80C9010B182
:1049000003685B689847002323611C34AC42DCD108
:10491000002ED4BF00200120BDE8F883E449030045
:1049200010B5054B03600446D0F8080108B11EF02D
:10493000F7FB204610BD00BF4448030010B50446F5
:10494000FFF7EEFF20464FF4927117F037F820463C
:1049500010BD00002DE9F0431D4B1D688BB00623F0
:104960000F460421002490462A680097CDE90713DA
:10497000C821CDE905410C21CDE90331CDE9018400
:104980000646D2F854902346302260212846C84774
:10499000D8B904F0E9FE044604F0E6FED6F8AC30DF
:1049A000001B98422B680DD21B6928469847336834
:1049B00042465B6B3946304698470028ECD00BB036
:1049C000BDE8F083DB6D284698470020F7E700BF7D
:1049D000E4490300F8B503689B6A044698474FF61C
:1049E000FF73984206461ED0104B1D682B68014687
:1049F000D3F898302846984704F0B6FE074604F0EE
:104A0000B3FED4F8AC30C01B98420CD22B682846B9
:104A10001B699847236831469B6B204698470028BE
:104A2000EDD10120F8BD0020FCE700BFE449030000
:104A30002DE9F3410546089CA5F810111078C5F83A
:104A40001441013085F81201002085F81801194839
:104A5000066830680092D0F89480DBB204223046B9
:104A60000F46C04724B304F07FFE044604F07CFEEA
:104A7000D5F8AC30001B984214D2336830461B691D
:104A800098472B6839469B6B2846984750B195F854
:104A900018010028EAD04FF6FF73A5F8103102B0D4
:104AA000BDE8F0814FF6FF73A5F810310020F6E75E
:104AB0002046F4E7E44903002DE9F04799460368EE
:104AC0009B6A044698474FF6FF739842054604D107
:104AD0004FF000084046BDE8F08723680146D3F850
:104AE000E0302046984780460028F1D0B4F8B03036
:104AF000AB423FD0B4F8CC30AB423DD0B4F8E83054
:104B0000AB42E5D102261C2707FB0647D7F8C43085
:104B10003BB9102016F028FF8246FFF70FFCC7F8BC
:104B2000C4A01C2303FB0646D6F8C460002ECFD0D9
:104B30003046B9F1000F21D1FFF744FC236832461B
:104B4000D3F8E47029464B462046B8470028BFD02A
:104B500023683246D3F8E830294620469847002893
:104B6000B6D02368324629462046D3F8EC30BDE85B
:104B7000F04718470026C6E70126C4E7FFF7FFFB0A
:104B8000002782465745D9DA39463046FFF7F9FB08
:104B9000FFF754FA49461EF03BFC00289AD0013733
:104BA000F0E7F0B5C5B004469DF82851ADF80D20EA
:104BB0000F4612218DF80C102A4619460DF10F00F0
:104BC0001EF0C4FA23684B9A0092D3F8F06003AA4F
:104BD000EB1C39462046B04745B0F0BDF0B5C5B036
:104BE00004469DF82851ADF80D200F4652218DF84E
:104BF0000C102A4619460DF10F001EF0A7FA236883
:104C000000220092D3F8F06003AAEB1C394620463C
:104C1000B04745B0F0BD10B500F1C90300F21D105A
:104C200033F8194C8C4201BF1C8814809C78947016
:104C30001C338342F4D1002010BD00002DE9F04167
:104C40000446B0F8B00096B01F464FF6FF73984286
:104C50001C9E09D0B4F8CC00984242D0B4F8E800C9
:104C600098423BD1022000E000201C2545436019FA
:104C7000172380F8B220A0F8C030A0F8B01080F858
:104C8000B37005F1B4033168E150E218B388938042
:104C9000711D721E0DF1090312F8010F03F80109CD
:104CA0008A42F9D1104B1868BA35036804EB05083D
:104CB000D3F89030424601A9984710B96051A8F83E
:104CC0000400D4F81C414CB13246394603A8FEF723
:104CD000D5FA03A8A04703A8FEF718FA16B0BDE856
:104CE000F0810120C1E700BFE44903002DE9F04154
:104CF00006460F46904600F1B405002415F8013C25
:104D0000BB420CD10622414628461EF011FA30B9AA
:104D10001C2303FB0464B4F8B000BDE8F081013447
:104D2000032C05F11C05E9D14FF6FF70F5E72DE9DD
:104D3000F04106460F46904600F1B405002415F8F0
:104D4000013CBB420CD10622414628461EF0F0F938
:104D500030B91C2303FB0464D4F8C400BDE8F0811F
:104D60000134032C05F11C05E9D10020F6E738B524
:104D70004FF6FF7204460B460020B3F8B050954240
:104D800003D093F8B250012D08D00130032803F16D
:104D90001C03F2D12046FEF761FA0AE01C234343CC
:104DA00003F1B4020B440A44204693F8B310FEF713
:104DB00065FA204638BD98B5B0F8A820D31DEC465A
:104DC000DB08ACEBC30300AF9D460368D3F88C400F
:104DD0006B46A047003018BF0120BD4698BD0000BB
:104DE0002DE9F04F87B002AF1D46DFF890A0B96003
:104DF00000F1540391460446FB600026B4F8B080ED
:104E0000C7F804D04FF6FF7398452BD0B4F8C030E4
:104E1000DA1D6946D208A1EBC202033B95469BB25C
:104E2000ADB29D424FF01B0228BF1D468DF80820F1
:104E3000BA68ADF8092049462A460DF10B001EF06C
:104E400085F9DAF800000DF1080B0268CDF800B022
:104E5000EB1CD2F894B0DBB204224146D847D7F815
:104E600004D00136FB681C349C42C7D1002ED4BF4D
:104E7000002001201437BD46BDE8F08FE44903004F
:104E80002DE9F04F87B002AFC7E900211E4600F5BB
:104E90008473054600F1B404BB604FF0000934F898
:104EA00004ACC7F80CD04FF6FF739A4542D0A389E3
:104EB000DA1D6946D208A1EBC202033B95469BB2BC
:104EC000B6B29E424FF01D0228BF1E468DF8082044
:104ED0007A68ADF80920396832460DF10B001EF0F2
:104EE00035F9002385F80431194BD3F800800DF112
:104EF000080BD8F80020CDF800B0F31CD2F894B01D
:104F0000DBB2042251464046D84795F804316BB9CC
:104F1000D8F8003040461B6998472B6814F8011CEC
:104F20005B6B2246284698470028EED1D7F80CD074
:104F300009F10109BB681C34A342B0D1B9F1000FDB
:104F4000D4BF002001201437BD46BDE8F08F00BF5C
:104F5000E44903002DE9F04F89B002AF042BFA6059
:104F60003A6CC7F808D0C7E9041014880AD003685F
:104F700004220092D3F8DC502346A8471C37BD46D4
:104F8000BDE8F08FFB6807336A46DB08A2EBC3037A
:104F90009D460DF1080805238DF80830002388F898
:104FA0000130484B013CD3F800A0A4B20225DAF846
:104FB00000305046DB699847844258D23B6C5B888E
:104FC000A34254D9DAF8003021461B6A504698476C
:104FD00003689B688346984742F60303013498426E
:104FE000A4B255D15846FEF741FB231A5942594104
:104FF000DBF8003079609B6858469847796802462C
:1050000011B9B0F5245F45D15846C7E90012FEF743
:1050100099FAD7E90012022806460CBF01230223A1
:1050200098F8010008B988F8013098F80100984212
:105030001DD105F102091FFA89F928F8054008EB8E
:10504000090311B9B2F5245F27D158467B60FEF7FA
:1050500076FA7B680146324618461EF077F809EB6F
:105060000605ADB20236FB682E44B3429FDA022D2C
:105070001CD17A693B6C12681B880A210091D2F816
:10508000DC40D7E904100422A047D7F808D075E720
:105090000021ADE702260123C2E7DBF800305846C5
:1050A0009B689847043528F80900DAE7064B18682A
:1050B0000368CDF80080D3F894403969EBB204223C
:1050C000A047E2E784490300E44903002DE9F04FDB
:1050D00089B002AF052B3E6CC7F808D08346C7E9FC
:1050E000032134880BD8036804220092D3F8DC50E3
:1050F00006222346A8471C37BD46BDE8F08FFA6854
:1051000007326946D208A1EBC202954607228DF804
:105110000820B288B2F5205F0DF1080A0DD0DBF847
:10512000002033880A210091D2F8DC403969062238
:105130005846A047D7F808D0DDE7063B9BB27B6115
:10514000274B013CD3F80090B31DA4B201257B602E
:10515000D9F800304846DB699847844232D27388D8
:10516000A3422FD9D9F8003021461B6A48469847F8
:1051700003689B6880469847B38883421BD14046AA
:10518000FEF7E0F97B69984215D14046FEF7D7F962
:105190007A6979681DF0CCFF68B94046FEF79DFE3C
:1051A0002AF805004046FEF79AFEAB1C9BB2043578
:1051B0002AF80300ADB2FA68EB1C9A4202DD013412
:1051C000A4B2C5E7012DAAD0064B18680368CDF834
:1051D00000A0D3F894403969EBB20422A047A9E7B4
:1051E00084490300E44903002DE9F04F89B002AF80
:1051F000062BBA603A6CC7F80CD081468B461588EE
:1052000004D19388A3F52053012B0FD9D9F800308E
:1052100010220092D3F8DC402B4659464846A0475E
:10522000D7F80CD01C37BD46BDE8F08FBB680733FC
:105230006A46DB08A2EBC3039D4602AE11238DF83C
:10524000083000237370364B013DD3F800A0ADB297
:105250000224DAF800305046DB699847854247D28D
:105260003B6C5B88AB4243D9DAF8003029461B6AB5
:10527000504698473B6C02689B887B6192688046E9
:1052800090477B69834230D14046FEF75BF90228A4
:1052900003460CBF062314233B61737878610BB976
:1052A0003B69737073783A69934221D14046FEF7A7
:1052B00014FE30534046FEF712FEA31C9BB204348A
:1052C000A4B2F052331940467B60FEF738F97B6890
:1052D0007A69014618461DF039FF7B69BA681C449B
:1052E0003B69A4B223449A4202DB0135ADB2B0E778
:1052F000022C09D13B6CD9F800201B880A210091AF
:10530000D2F8DC40102288E7064B18680368009644
:10531000D3F894500422E3B25946A84780E700BF6F
:1053200084490300E44903002DE9F04F89B002AF3E
:1053300091463A6CC7F808D0062BC7E903101588C8
:105340000BD0036804220092D3F8DC4008222B46DD
:10535000A0471C37BD46BDE8F08F09F107036A4638
:10536000DB08A2EBC3039D460DF1080809238DF865
:105370000830002388F801306D4B1B687B613B6C63
:10538000013D0433ADB202247B607B6978691B6800
:10539000DB699847854280F083803B6C5B88AB4239
:1053A0007ED97B6978691B6829461B6A9847036820
:1053B0009B68064698473B6C9B888342336805F19F
:1053C000010A1FFA8AFA9B6830467AD1984742F65A
:1053D000030398423DD13046FEF748F9824535D067
:1053E0003046FEF7AFF898F80120022803460CBFBC
:1053F0004FF0070B4FF0150B0AB988F801B098F879
:1054000001203B605A454BD128F804A03046FEF7F6
:10541000A9F8A21C92B2023508F80200E21C92B26E
:10542000304628F80250FEF78AF805343B68A4B2EB
:1054300008EB04051A46014628461DF087FE3B6826
:105440001C44A4B2A344D9452ADB55460135ADB26C
:105450009BE7336830469B68984742F602139842B0
:10546000F4D128F804A03046FEF768FA0234A4B25A
:10547000A9EB040980B21FFA89F9814528BF81464A
:10548000304608EB0405FEF75BFA4A4601464C44F9
:10549000284609F102091DF059FEA4B288F80190CE
:1054A000022C38D13A693B6C12681B880A210091A2
:1054B000D2F8DC40D7E903100822A047D7F808D07B
:1054C00047E7984742F603039842BFD13046FEF7BC
:1054D00039F802288346B9D13046FEF730F85A46EB
:1054E000014678681DF024FE0028AFD128F804A0FA
:1054F0003046FEF741F80234A4B2A9EB04091FFAC2
:1055000089F980B2814528BF8146304608EB040501
:10551000FEF730F8B9E7074B18680368CDF800804C
:10552000D3F89450F968E3B20422A847C6E700BF55
:1055300084490300E44903002DE9F047012B96B0AC
:10554000044602AF0E4615469A46E8460BD003685D
:1055500004220092D3F8DC4018220023A0475037E1
:10556000BD46BDE8F087B0F8061169B33B6F1B7804
:10557000DB0729D5244B1868036801391B6A984753
:10558000B4F8B030B342814639D0B4F8CC30B3422D
:1055900037D0B4F8E830B34216D102231C2253436B
:1055A00003F1B4022344224493F8B310381DFDF7ED
:1055B00065FE4846B4F80C31D4F80821391DFEF7D1
:1055C0004EF9381DFDF7A2FD00230735A4F806317A
:1055D000A4F80C31ED086B46A3EBC5039D461923D7
:1055E0008DF80830094B186802AA03680092D3F8B6
:1055F0009440042201233146A047C546AFE700236B
:10560000CCE75346CAE700BF84490300E4490300DE
:105610002DE9F04F87B002AF032B04460D467A60A8
:105620001E46C7F80CD00DD8036804220092D3F8A8
:10563000DC4016220023A047D7F80CD01437BD4613
:10564000BDE8F08FBB6B1B883B811FFA83F8BB6BF7
:10565000B3F802B04B4BD3F80090D9F8003048466D
:10566000DB69984708F1FF318BB2834206D9236882
:105670000A220092D3F8DC60434620E0D9F80030DB
:1056800048461B6A984703689B688146984742F6DC
:105690000303984202D023680B22EAE74846FDF74D
:1056A000E5FF40458246F6D14846FDF75BFF03071C
:1056B0000AD4236803210091D3F8DC6053461622F4
:1056C00029462046B047B7E7B4F80631E3B9484663
:1056D0003B60FDF74DFF01468246D4F808011DF0FE
:1056E0003BFE3B683A89A4F80621C4F80801A4F8F7
:1056F0000C31524619461DF037FDB4F80C315B45AC
:1057000007D023680722B4E75345F6D023680E215B
:10571000D1E7331F5FFA83FA0BEB0A024846BA60FF
:10572000FDF726FFBA6880B28242EADCBB6BD4F890
:1057300008015246191D58441DF008FDB4F80C210B
:10574000B96B0AEB0203A4F80C317B6807336A4695
:10575000DB08A2EBC3039D4617238DF808303246C1
:105760000DF109001DF0F2FC074B186802AC02684D
:105770000094731CD2F89440DBB204222946A0475F
:105780005AE700BF84490300E44903002DE9F04FC4
:105790009BB0012B8A46039263D9249A023B168858
:1057A000059300F1540204460292B4F8B030534518
:1057B00042D1D4F8C450002D42D02846FEF7DFFD78
:1057C0004FF000098046C14536DA49462846FEF7C3
:1057D000D8FD0746FEF748FEB0422AD23846FEF70B
:1057E00045FEB04225D33846FEF742FE249B0233E5
:1057F000804604F1B4090025049345451CDA294686
:105800003846FEF737FE8346FEF7ABFCB0420ED1BA
:105810004A4694F8B31007A8FDF730FD5846DDE975
:10582000042307A9FEF70EFD07A8FDF76FFC01355D
:10583000E3E709F10109C6E7029B1C349C42B4D19D
:10584000039B1D2B0DD11E238DF81C30064B1868B1
:1058500007AA03680092D3F894400422012351461A
:10586000A0471BB0BDE8F08FE44903002DE9F04FDD
:105870008FB002AFC7E90021FB60B0F8A830F9682B
:1058800007336A46DB08A2EBC30307F118059D4600
:105890008346284600F028FF0DF108090124BD6069
:1058A000DBF80030CDF804904FF420520092D3F88A
:1058B000BC5079684FF6FF7322465846A847054604
:1058C00020B199F80030112B04D001203437BD46A7
:1058D000BDE8F08F99F801307B61A3F10408022341
:1058E0005FFA88F809F102063B614FF6FF7A3B69DF
:1058F000AB4204DB4FF6FF739A45D1D0E5E7FB6876
:10590000E3B9302016F030F83146728831F8043BA4
:10591000009204464246FEF78DFD21463868FEF7A8
:1059200017FD7488D7E904320134A4B2002C134463
:1059300008BF4FF0000A3B611644D8E7B86800F092
:1059400012FF4045EDD1B86800F00BFF424601461A
:10595000301D1DF0EDFB0028D3D0E2E72DE9F04F1C
:105960008DB0B0F8A83004AFC7E9042107336A4608
:10597000DB08A2EBC3039D4682463869FEF7FFFCB5
:105980000DF11009F8604FF00008FB6898454ADAFD
:1059900041463869FEF7F5FCB861FEF765FD06463D
:1059A000B869FEF763FDB860DAF80030CDF804900E
:1059B00042F603020092D3F8A8407969BB683246E8
:1059C0005046A047054678B399F80030092B27D1F7
:1059D00099F80130FB61053BDBB27B6009F1020401
:1059E0004FF0020BAB45DFDA382015F0BDFFB4F8FD
:1059F00003300293A37801932388009306467B69C2
:105A00007A68611DFEF726FB3146B869FEF740FD56
:105A1000B4F80360FB690136B6B29B441C44E1E76D
:105A200008F10108B1E701202437BD46BDE8F08F39
:105A30002DE9F04F8FB0B0F8A83002AF0733C7E9B7
:105A40000421DB086A46A2EBC3039D4602AB8246F3
:105A50003869FB62FEF793FC4FF0000BF860FB68BF
:105A60009B456CDA59463869FEF78BFC7862FEF785
:105A7000FDFCB860786AFEF7FBFC431E3862002626
:105A80007B603B6A9E4257DA3146786AFEF7F2FC49
:105A90007B68F8619E4248D0711C786AFEF7EAFC88
:105AA0000546F869FEF75DFB013084B2002D3ED05B
:105AB0002846FEF756FBB862BB6AA3423AD3DAF82F
:105AC0000030FA6A0092D3F898507969BB6A22468E
:105AD0005046A847054698B3FB6A1B78052B29D189
