:020000021000EC
:10000000F8FF051071FA0200C5FA0200B5010100FF
:10001000BB010100C1010100C70101000000000097
:1000200000000000000000000000000019020100B4
:10003000C7FA020000000000B1020100C102010085
:10004000C7FA0200C7FA0200C7FA0200C7FA0200A4
:10005000C7FA0200C7FA0200C7FA0200C7FA020094
:10006000C7FA0200C7FA0200C7FA0200C7FA020084
:1000700071BC010059F202002DF5020065FA020080
:100080006BFA0200C7FA0200C7FA0200C7FA0200C0
:10009000C7FA0200C7FA0200C7FA0200C7FA020054
:1000A000C7FA0200C7FA0200C7FA0200C7FA020044
:1000B000C7FA0200C7FA0200C7FA0200C7FA020034
:1000C0000000000000000000000000000000000030
:1000D0000000000000000000000000000000000020
:1000E0000000000000000000000000000000000010
:1000F0000000000000000000000000000000000000
:1001000010B5054C237833B9044B13B10448AFF351
:1001100000800123237010BDC00E001000000000FD
:1001200058AF030008B5034B1BB103490348AFF3B5
:10013000008008BD00000000C40E001058AF03008E
:10014000154B002B08BF134B9D46A3F5803A0021A9
:100150008B460F461348144A121A23F049FE0F4BE0
:10016000002B00D098470E4B002B00D09847002062
:10017000002104000D000D48002802D00C481CF09E
:1001800019F823F07DFD200029001CF07FFD1CF0F4
:100190000BFA00BF00000800F8FF05100000000087
:1001A000E9CB0200C00E0010B89C0110B5C10200DE
:1001B00000000000102300F007B8202300F004B86E
:1001C000302300F001B840239C46F0B404AE7546DD
:1001D000E80801D3EFF309860E4F0FCE0FC70FBC0F
:1001E0000FC74046494652465B460FC71DCE3100F9
:1001F000A60A00D304316E0900D248311FC7EFF3BD
:1002000009806946EFF3148663C7604601491BF015
:10021000B7FC00BF985601101EF0040F0CBFEFF39F
:100220000880EFF30980816911F8021C91BB01B5C8
:1002300090E80F10E047BDE800508CE80300244B25
:1002400093E80600914208BF704741B91EF0100FB5
:1002500010D12049086820F0010008600AE02CE96C
:10026000F00F1EF0100F08BF2CED108AC1F838C037
:1002700081F822E01A6092F82210906B61F0FF0E74
:100280001EF0100F08BFB0EC108AB0E8F00F80F33A
:1002900009887047104A13689942FAD801B552F894
:1002A00021C00FC8E047BDE80050CCF800007047FF
:1002B00001B51EF05FF8BDE80140EFF3098CBEE721
:1002C00001B51EF01FF8BDE80140EFF3098CB6E759
:1002D000F003001034EF00E0087C030081F00041DF
:1002E00002E000BF83F0004330B54FEA41044FEA1B
:1002F000430594EA050F08BF90EA020F1FBF54EAB6
:10030000000C55EA020C7FEA645C7FEA655C00F051
:10031000E2804FEA5454D4EB5555B8BF6D420CDD22
:100320002C4480EA020281EA030382EA000083EAA5
:10033000010180EA020281EA0303362D88BF30BD45
:1003400011F0004F4FEA01314FF4801C4CEA11319B
:1003500002D0404261EB410113F0004F4FEA0333FA
:100360004CEA133302D0524263EB430394EA050F85
:1003700000F0A780A4F10104D5F1200E0DDB02FAF4
:100380000EFC22FA05F2801841F1000103FA0EF288
:10039000801843FA05F359410EE0A5F120050EF14E
:1003A000200E012A03FA0EFC28BF4CF0020C43FA7F
:1003B00005F3C01851EBE37101F0004507D54FF08C
:1003C000000EDCF1000C7EEB00006EEB0101B1F5DC
:1003D000801F1BD3B1F5001F0CD349085FEA300022
:1003E0004FEA3C0C04F101044FEA445212F5800F2D
:1003F00080F09A80BCF1004F08BF5FEA500C50F1CA
:10040000000041EB045141EA050130BD5FEA4C0CAC
:10041000404141EB010111F4801FA4F10104E9D135
:1004200091F0000F04BF01460020B1FA81F308BF2C
:100430002033A3F10B03B3F120020CDA0C3208DDF8
:1004400002F1140CC2F10C0201FA0CF021FA02F1D3
:100450000CE002F11402D8BFC2F1200C01FA02F143
:1004600020FA0CFCDCBF41EA0C019040E41AA2BF68
:1004700001EB0451294330BD6FEA04041F3C1CDA30
:100480000C340EDC04F11404C4F1200220FA04F050
:1004900001FA02F340EA030021FA04F345EA0301FA
:1004A00030BDC4F10C04C4F1200220FA02F001FABC
:1004B00004F340EA0300294630BD21FA04F029463E
:1004C00030BD94F0000F83F4801306BF81F48011D7
:1004D0000134013D4EE77FEA645C18BF7FEA655C4A
:1004E00029D094EA050F08BF90EA020F05D054EA1C
:1004F000000C04BF1946104630BD91EA030F1EBF21
:100500000021002030BD5FEA545C05D14000494124
:1005100028BF41F0004130BD14F580043CBF01F517
:10052000801130BD01F0004545F0FE4141F47001FD
:100530004FF0000030BD7FEA645C1ABF19461046D8
:100540007FEA655C1CBF0B46024650EA013406BFD9
:1005500052EA033591EA030F41F4002130BD00BF98
:1005600090F0000F04BF0021704730B54FF4806455
:1005700004F132044FF000054FF0000150E700BFD6
:1005800090F0000F04BF0021704730B54FF4806435
:1005900004F1320410F0004548BF40424FF0000122
:1005A0003EE700BF42004FEAE2014FEA31014FEA65
:1005B00002701FBF12F07F4393F07F4F81F06051B4
:1005C000704732F07F4208BF704793F07F4F04BFFF
:1005D00041F40021704730B54FF4607401F00045DC
:1005E00021F000411CE700BF50EA010208BF70473C
:1005F00030B54FF000050AE050EA010208BF70472D
:1006000030B511F0004502D5404261EB41014FF495
:10061000806404F132045FEA915C3FF4D8AE4FF09D
:1006200003025FEADC0C18BF03325FEADC0C18BF80
:10063000033202EBDC02C2F1200300FA03FC20FAD1
:1006400002F001FA03FE40EA0E0021FA02F114441E
:10065000BDE600BF70B54FF0FF0C4CF4E06C1CEA37
:1006600011541DBF1CEA135594EA0C0F95EA0C0FA8
:1006700000F0DEF82C4481EA030621EA4C5123EA1B
:100680004C5350EA013518BF52EA033541F480114A
:1006900043F4801338D0A0FB02CE4FF00005E1FBFD
:1006A00002E506F00042E0FB03E54FF00006E1FB47
:1006B00003569CF0000F18BF4EF0010EA4F1FF048A
:1006C000B6F5007F64F5407404D25FEA4E0E6D41CA
:1006D00046EB060642EAC62141EA55514FEAC520DB
:1006E00040EA5E504FEACE2EB4F1FD0C88BFBCF557
:1006F000E06F1ED8BEF1004F08BF5FEA500E50F108
:10070000000041EB045170BD06F0004646EA0101CD
:1007100040EA020081EA0301B4EB5C04C2BFD4EBFF
:100720000C0541EA045170BD41F480114FF0000EF8
:10073000013C00F3AB8014F1360FDEBF002001F066
:10074000004170BDC4F10004203C35DA0C341BDCE0
:1007500004F11404C4F1200500FA05F320FA04F0B2
:1007600001FA05F240EA020001F0004221F00041E6
:1007700010EBD37021FA04F642EB06015EEA430E59
:1007800008BF20EAD37070BDC4F10C04C4F1200589
:1007900000FA04F320FA05F001FA04F240EA02003C
:1007A00001F0004110EBD37041F100015EEA430E0D
:1007B00008BF20EAD37070BDC4F1200500FA05F22D
:1007C0004EEA020E20FA04F301FA05F243EA0203AC
:1007D00021FA04F001F0004121FA04F220EA0200BB
:1007E00000EBD3705EEA430E08BF20EAD37070BD01
:1007F00094F0000F0FD101F00046400041EB0101E1
:1008000011F4801F08BF013CF7D041EA060195F0C2
:10081000000F18BF704703F00046520043EB03037C
:1008200013F4801F08BF013DF7D043EA0603704769
:1008300094EA0C0F0CEA135518BF95EA0C0F0CD074
:1008400050EA410618BF52EA4306D1D181EA0301BA
:1008500001F000414FF0000070BD50EA410606BFB4
:100860001046194652EA430619D094EA0C0F02D1F9
:1008700050EA013613D195EA0C0F05D152EA03363E
:100880001CBF104619460AD181EA030101F000415C
:1008900041F0FE4141F470014FF0000070BD41F0A5
:1008A000FE4141F4780170BD70B54FF0FF0C4CF47F
:1008B000E06C1CEA11541DBF1CEA135594EA0C0F9E
:1008C00095EA0C0F00F0A7F8A4EB050481EA030EEB
:1008D00052EA03354FEA013100F088804FEA0333D2
:1008E0004FF0805545EA131343EA12634FEA0222A0
:1008F00045EA111545EA10654FEA00260EF0004161
:100900009D4208BF964244F1FD0404F5407402D2B2
:100910005B084FEA3202B61A65EB03055B084FEA43
:1009200032024FF480104FF4002CB6EB020E75EB40
:10093000030E22BFB61A754640EA0C005B084FEA68
:100940003202B6EB020E75EB030E22BFB61A7546E5
:1009500040EA5C005B084FEA3202B6EB020E75EB30
:10096000030E22BFB61A754640EA9C005B084FEAA8
:100970003202B6EB020E75EB030E22BFB61A7546B5
:1009800040EADC0055EA060E18D04FEA051545EAA4
:1009900016754FEA06164FEAC30343EA52734FEA4D
:1009A000C2025FEA1C1CC0D111F4801F0BD141EAC6
:1009B00000014FF000004FF0004CB6E711F4801F2B
:1009C00004BF01430020B4F1FD0C88BFBCF5E06F0B
:1009D0003FF6AFAEB5EB030C04BFB6EB020C5FEA1B
:1009E000500C50F1000041EB045170BD0EF0004E70
:1009F0004EEA113114EB5C04C2BFD4EB0C0541EAA2
:100A0000045170BD41F480114FF0000E013C90E69E
:100A100045EA060E8DE60CEA135594EA0C0F08BF62
:100A200095EA0C0F3FF43BAF94EA0C0F0AD150EA61
:100A300001347FF434AF95EA0C0F7FF425AF1046F4
:100A400019462CE795EA0C0F06D152EA03353FF41C
:100A5000FDAE1046194622E750EA410618BF52EA99
:100A600043067FF4C5AE50EA41047FF40DAF52EA6D
:100A700043057FF4EBAE12E74FEA4102B2F1E043E7
:100A800024BFB3F5001CDCF1FE5C0DD901F0004C75
:100A90004FEAC0024CEA5070B2F1004F40EB8300C5
:100AA00008BF20F00100704711F0804F21D113F1F1
:100AB0003872BCBF01F00040704741F480114FEA2A
:100AC0005252C2F11802C2F1200C10FA0CF320FAB3
:100AD00002F018BF40F001004FEAC1234FEAD323D0
:100AE00003FA0CFC40EA0C0023FA02F34FEA43033A
:100AF000CCE77FEA625307D150EA01331EBF4FF0C3
:100B0000FE4040F44000704701F0004040F0FE40DD
:100B100040F40000704700BF7BB972B90029BEBF26
:100B200000204FF0004106E008BF00281CBF6FF016
:100B300000414FF0FF3000F0BFB9ADF1080C6DE996
:100B400004CE002909DB002B1ADB00F04DF8DDF89C
:100B500004E0DDE9022304B07047404261EB41014B
:100B6000002B1BDB00F040F8DDF804E0DDE9022398
:100B700004B0404261EB4101524263EB43037047D2
:100B8000524263EB430300F02FF8DDF804E0DDE9A7
:100B9000022304B0404261EB41017047524263EBD3
:100BA000430300F021F8DDF804E0DDE9022304B09E
:100BB000524263EB4303704753B94AB9002908BF57
:100BC00000281CBF4FF0FF314FF0FF3000F074B928
:100BD000ADF1080C6DE904CE00F006F8DDF804E094
:100BE000DDE9022304B070472DE9F047089E044672
:100BF0008846002B40F085808A42154648D9B2FAD3
:100C000082F24AB1C2F1200701FA02F320FA07F793
:100C1000954047EA030894404FEA154E230CB8FB71
:100C2000FEF71FFA85FC0EFB178843EA084307FB13
:100C30000CF1994209D9EB1807F1FF3080F0E380FD
:100C4000994240F2E080023F2B445B1AA4B2B3FB0E
:100C5000FEF00EFB103344EA034400FB0CFCA445F9
:100C600009D92C1900F1FF3380F0CB80A44540F264
:100C7000C88002382C4440EA0740A4EB0C0400274B
:100C80001EB1D4400023C6E900433946BDE8F087D1
:100C9000002A53D0B2FA82F2002A40F0B680491BF3
:100CA0004FEA154E1FFA85F80127B1FBFEFC230C15
:100CB0000EFB1C1143EA014308FB0CF1994207D9D2
:100CC000EB180CF1FF3002D2994200F2EC8084461E
:100CD000591AA3B2B1FBFEF00EFB101443EA044410
:100CE00008FB00F8A04507D92C1900F1FF3302D208
:100CF000A04500F2DC801846A4EB080440EA0C4052
:100D0000BEE78B4208D9002E78D00027C6E9000143
:100D100038463946BDE8F087B3FA83F77FB98B428E
:100D200002D3824200F2BD80841A61EB03030120EA
:100D30009846002EA9D0C6E90048A6E7FFDEC7F115
:100D40002005BB4022FA05FC4CEA030C01FA07F42B
:100D500020FA05F821FA05F34FEA1C4E48EA04048C
:100D6000B3FBFEF9210C0EFB19331FFA8CF841EA94
:100D7000034309FB08FA9A4502FA07F200FA07F161
:100D80000BD91CEB030309F1FF3080F088809A45F2
:100D900040F28580A9F102096344A3EB0A03A4B2DF
:100DA000B3FBFEF00EFB103344EA034400FB08F8EB
:100DB000A04508D91CEB040400F1FF336BD2A04519
:100DC00069D90238644440EA0940A4EB0804A0FB56
:100DD00002894C45C6464B4654D351D0002E69D0AB
:100DE000B1EB0E0264EB030404FA05F522FA07F3F3
:100DF000FC401D43C6E90054002746E7374630460D
:100E000043E7184637E707461FE7C2F1200320FAF9
:100E100003F7954001FA02F021FA03F34FEA154E69
:100E20003843010CB3FBFEF71FFA85F80EFB1733AE
:100E300041EA034107FB08F38B4204FA02F407D9A5
:100E4000691807F1FF3C28D28B4226D9023F29447A
:100E5000CB1A81B2B3FBFEF00EFB103341EA034123
:100E600000FB08F38B4207D9691800F1FF3C10D250
:100E70008B420ED902382944C91A40EA074714E7C1
:100E80004145ABD2B8EB020E69EB0C0201381346B8
:100E9000A4E76046F0E7184695E76746D8E781463D
:100EA0007BE7384645E7ACF1020C2B4410E70238EB
:100EB0002C4421E73746E8E6704700BF10F8012BC5
:100EC00011F8013B012A28BF9A42F7D0D01A704787
:100ED000034613F8012B002AFBD1181A013870477A
:100EE00010B5034B0360044602F0BEFE204610BD61
:100EF000E447030010B5034B03600446FFF7F0FF1F
:100F0000204610BDF447030010B5034B03600446B0
:100F100002F0AAFE204610BD0448030010B50446A6
:100F2000FFF7DEFF20460C211BF08CFB204610BD96
:100F300010B50446FFF7DEFF20460C211BF082FBB4
:100F4000204610BD10B50446FFF7DEFF20460C21F9
:100F50001BF078FB204610BD012202F00ABF000002
:100F600070B505460E46011D002023F0C9F8044661
:100F7000286020B122F072FC3060012070BD03496E
:100F8000034809F049F82046F8E700BF624B030028
:100F9000280A011038B5044604F1970508460A22CC
:100FA000294609F02EFC29462046BDE8384023F0AA
:100FB0008FB800007FB5244B244D1C68244E236855
:100FC00020469B6898472368294620469B6C984793
:100FD00023682946DB6B1F4D204698472368294626
:100FE000DB6A204698473146284603F0ADF828468C
:100FF000194903F0A9F82846184903F0A5F8236811
:10100000294620461B6D164D9847042200230DEB00
:10101000020101933046012302F09AFE114928464D
:1010200008F0E0FF236821461B6A01A8984701A940
:10103000284608F0E7FF01A809F05DF8236820467C
:101040005B6D984704B070BD9C5403003B4B03009C
:10105000980F00108C0F0010A40F0010800F0010CC
:10106000280A0110474B030070B52B4C2B4E002370
:10107000054620462370FFF78DFF2949204623F0BF
:1010800027F829682046FFF785FF3146204623F0E0
:101090001FF8A9882046FFF77DFF3146204623F040
:1010A00017F8E9882046FFF775FF3146204623F000
:1010B0000FF8B5F908102046FFF76CFF31462046BF
:1010C00023F006F8B5F90A102046FFF763FF314612
:1010D000204622F0FDFFB5F90C102046FFF75AFF1D
:1010E0003146204622F0F4FFB5F90E102046FFF7F6
:1010F00051FF3146204622F0EBFFB5F91010204693
:10110000FFF748FF3146204622F0E2FFB5F9121002
:101110002046FFF73FFF70BDB00F0010A14803004D
:10112000C55703002DE9F041A948A8B002F0FCFD25
:101130000446A74802F002FE962827DCA54A0023B1
:10114000984204DDE15C02F8011B0133F8E7A24B91
:10115000034400225A73A04C211D04F10D0022F01B
:10116000CFFF206068B322F079FB05460A2800F221
:101170009181DFE810F02D003E00570067006F00FE
:101180007600BD00FB00040167017A019349944891
:1011900008F028FF0A229721914808F087FF91491B
:1011A0008F4808F039FF8B4A631E963413F8011FED
:1011B00002F8011BA342F9D1874B002283F8A32038
:1011C000C9E78949864808F027FF28B0BDE8F081C3
:1011D000864C874900232370204622F079FF214660
:1011E0008448FFF7B9FE84497D4808F0FBFE21469C
:1011F000E8E78249002022F083FF0146206078B1B1
:101200007A4C02A822F074FF002323707C49204608
:1012100022F05EFF02A9204622F05AFF7949DBE75F
:101220007949CFE700F076FA784B794900221A70B5
:101230006E4B1A70184622F04BFF01466D48FFF7BF
:101240008BFEC2E7714B734901221A70674B002273
:101250001A70EFE76D4B704900221A70634B1A70D9
:10126000E8E7624C00232370684B1B782BB16B4975
:10127000204622F02DFF2146E0E701A95648FFF75E
:101280006FFE08B96649F3E702A95348FFF768FE05
:1012900008B96449ECE7019D05F1FF03B3F5FF7F51
:1012A00004D8029BFF33B3F5FF7F04D95E494F4852
:1012B00022F00EFF61E05D49204622F009FF294639
:1012C0002046FFF767FE5A49204622F001FF0299A7
:1012D0002046FFF75FFE21464648FFF73DFEBDF979
:1012E000040000F09DF9BDF9080000F0B1F96CE7C9
:1012F0003E4C00232370454B1B78002BB7D101A92E
:101300003548FFF72DFE0028BCD002A93248FFF770
:1013100027FE0028BDD0019D05F57A73B3F5FA6F5D
:1013200005D8029B03F57A73B3F5FA6F01D94149E9
:10133000BDE74149204622F0CBFE29462046FFF773
:1013400029FE3B49204622F0C3FE02992046FFF7C2
:1013500021FE21462748FFF7FFFDBDF9040000F0FC
:101360008FF9BDF9080000F0A5F92EE702A800F0FA
:1013700015FA01460298FFF777FE1C495EE7234BFA
:101380001C780CB12D4992E702A800F015FA174D10
:101390002B492C700646284622F09AFE31462846F4
:1013A000FFF7F8FD29461348124FFFF7D5FD4FF020
:1013B0001408A6427FF709AF0298A1B208FB040007
:1013C000FFF752FE29463846FFF7C6FD0134F0E725
:1013D000800F0010E90E0010DC0E0010A34803007F
:1013E000280A0110D248030006490300B00F00107C
:1013F0001B490300A40F001020490300E00E001059
:101400002C49030039490300624B03007C10001093
:101410003E490300634903007F4903009A490300E2
:10142000B7490300D7490300F8490300184A0300ED
:10143000987503002F4A0300504A0300684A0300CE
:10144000884A0300184C19480023237002A902930C
:10145000FFF786FD08B916490AE7029BB3F57A7FC4
:1014600001D9144904E7144A13800F4C0F48002394
:10147000237002A90293FFF773FD08B90F49F7E63D
:10148000029B03F1B402B2F5B47F01D90C49EFE637
:101490000C4A13800C490D4808F0A4FD0A22294685
:1014A0000A4808F005FE90E6B00F0010DC0E0010B0
:1014B000A04A0300C44A030010010010E74A0300D9
:1014C000064B03008C100010244B0300280A011067
:1014D00008B5044802F057FC18B1BDE80840FFF712
:1014E00021BE08BD800F00102DE9F3411F4D204C97
:1014F0002049214F214E284602F008FE2846204D63
:10150000204922464FF000081AF052FE9723CDF8EA
:10151000008008221C49284602F0ECFB2F60284678
:101520001A4D224631461AF043FE12221849284627
:1015300002F012FE2846174D174922461AF038FECF
:101540009723CDF8008012221449284602F0D2FBDE
:101550003146224628462F601AF02AFE10491148CB
:1015600002B0BDE8F04122F0C3BD00BF8C0F0010F7
:10157000000100100C48030004480300090F01009B
:10158000800F0010A140010031480300980F0010A7
:1015900056480300A40F0010F50E01007B4803001D
:1015A000A0480300E00E0010164A1749B2F90030B7
:1015B00091ED027AD1ED006A14491080C31A07EE4A
:1015C000903AF8EEE77A82B067EE877A07EE100A73
:1015D000B8EEC77A0020E6EE877AFDEEE77A17EEDE
:1015E000903A1BB28B42B8BF0B46B3F5487FA8BFF9
:1015F0004FF448739AB262F30F0062F31F4002B0D7
:10160000704700BF7810001004010010E0FCFFFFDD
:1016100002490B6803604B6843607047701000100C
:101620000A4B002810B50446988009DB00210B20E6
:1016300008F044FE21460C20BDE8104008F03EBEF4
:1016400041420B2008F03AFE0021F4E77010001030
:101650000A4B002810B50446D88009DB002106207B
:1016600008F02CFE21460720BDE8104008F026BEF9
:101670004142062008F022FE0021F4E7701000101D
:101680000B4B002818804FF47A7208DBD22310FB32
:1016900003F0B0FBF2F02D3000B2FFF7C1BF00F550
:1016A0007A70EB23584390FBF2F0FF38F4E700BF69
:1016B000701000100B4B00285880B8BF00F57A70EE
:1016C0004FF0A203ACBF10FB03F058434FF47A7203
:1016D000ABBFB0FBF2F090FBF2F01230B43800B2C6
:1016E000FFF7B6BF7010001013B5081A00B2FFF76D
:1016F0005BFF074B0446241400B218805C80FFF7A0
:10170000BFFF204602B0BDE81040FFF7D3BF00BFC7
:101710007010001008B50020FFF782FF0020BDE820
:101720000840FFF795BF000037B5154C6846FFF736
:101730006FFF218840F6B73399421ED81422114D0D
:10174000114B2D684A4398189D50104D2D88858067
:101750000F4D2D88C5800F4DD5ED007AFDEEE77A4F
:10176000103317EE905A05810B4D2D884581009D51
:10177000C56001310198D050218003B030BD00BF59
:1017800012010010881000109C100010841000102E
:101790001001001000FB00108C100010044B0549D4
:1017A0001B88142202FB03120260581E80B270478D
:1017B0001201001088100010024B0360024B1888C1
:1017C000704700BF9C1000101201001010B5084CAB
:1017D0004FF4E131204608F078FE00F0B3F9FFF74E
:1017E000E9FB20460349BDE8104008F015BC00BFE6
:1017F000280A0110D14B03002DE9F04F4F4B2DED7E
:10180000028B19680B6897B003A81B6F984703A851
:1018100002F01EFB38B903A802F0BCFA17B0BDEC09
:10182000028BBDE8F08F46494648474E474C08F0CA
:10183000D9FB03A9684602F0F1FA6946414808F06D
:10184000E1FB684608F057FC03A802F021FB0028E2
:101850006ED0FFF73DFE3E4F2368336008F0C8FDB1
:101860003A7820603B4B002A5DD01A78DFF8088177
:10187000394D72B901221A70384B1A8008F0B8FD40
:1018800000233749C8F800002B602E4808F0C4FB3D
:10189000DAE7D8F80030DFF8E4A0DFF8E4B0C01AE7
:1018A0000021CAF80000084600F0DEF8ABF800009E
:1018B000002000F0E1F82B4B286883ED000AB0EE21
:1018C000408AFEF76FFE326823689B1A07EE903A53
:1018D000F8EE677A804667EE887A894617EE900AB6
:1018E000FEF760FE0022204BFEF7DEFF02460B46AD
:1018F00040464946FEF7F6FCFFF7BEF81B4B286052
:10190000BBF800101888FFF7EFFEFFF70DFFDAF8BD
:10191000002042F6DF639A4296D9FFF7FBFE0023D0
:101920003B701349B1E7197800298DD01A708BE705
:101930001049044808F070FBFEE700BF9C54030008
:10194000784B0300280A0110981000108010001036
:101950007C1000109410001000FB00101201001009
:10196000874B03009010001000408F4010010010C2
:101970009A4B0300AF4B0300FCFA001088100010D4
:101980008410001038B501210F2008F0E1FC00217F
:101990000F2008F00FFD0121102008F0D9FC0021D4
:1019A000102008F007FD2C4C00210F2008F0D0FC7F
:1019B0004FF4FA750A2008F02DFDE5830121204639
:1019C00000F060FD50B30021204600F0E3FC44F637
:1019D0002061204600F064FC2A21204600F042FAF3
:1019E0001421204600F0E7FA0021102008F0B0FC96
:1019F0000A2008F00FFDA4F84A50012104F12C0040
:101A000000F040FD60B901241449154808F0EAFAD5
:101A10000A222146124808F064FBFEE70446F3E779
:101A2000002104F12C0000F0B5FC44F6206104F123
:101A30002C0000F035FC04F12C002B2100F012FAF0
:101A400004F12C00142100F0B6FA06490448BDE860
:101A5000384008F0E1BA00BF70FB00103A4C0300B8
:101A6000280A0110624C0300024B2C2200FB0230BA
:101A700000F0C4BB70FB001010B586B028B10C4C50
:101A8000204600F05BFF0028FAD00948094C00F01E
:101A900055FF40B10649684600F0A6FE044800F034
:101AA00005FF84ED000A94ED000A06B010BD00BFEA
:101AB0000CFB001004FB001010B5064C204600F093
:101AC000A5F904F12C0000F0A1F90348BDE810408D
:101AD00000F0E8BF70FB001008FB001070B5134C5D
:101AE000134D261DFF2300222946104801F05EF900
:101AF0001049114808F076FA1021304600F0DAFE5D
:101B000001460D4808F088FA94F850302BB90B497B
:101B10000948BDE8704008F07FBA0949064808F056
:101B20007BFA4FF4FA7008F075FCDBE708FB001055
:101B3000C8FB0010EB4B0300280A0110134C0300F4
:101B40002A4C030010B5074C204600F0A7F82046A9
:101B5000054900F073F8FFF715FFBDE81040FFF7E7
:101B6000BDBF00BFC8FB0010801A060000207047F0
:101B70007047006910B10368DB6818477047490077
:101B80000023C161C0F82C327047036801211B6B30
:101B9000184710B403689C6B0123A4465DF8044BFE
:101BA0006047D0F82C32B3F5807F1FBF5A1CC0F8B5
:101BB0002C22C01880F82C1114BF0120002070477F
:101BC000D0F8280170477047C0F830127047C0F84D
:101BD000341270470346D0F82801A8B1D3F8282161
:101BE00082B1D3F824211A4492F82000D3F824219A
:101BF0000132D2B2C3F82421D3F82821013AC3F824
:101C0000282170474FF0FF307047D0F828312BB1B2
:101C1000D0F82431184490F8200070474FF0FF307E
:101C20007047000010B5044B0360044600F50E70C9
:101C30001DF086F9204610BD884C0300006908B1EC
:101C400008F0A4BF704707B581F001010091D0F8FA
:101C50002C32C16900F59672006908F0C3FF0028B4
:101C600014BF0220002003B05DF804FB38B5D0F8A3
:101C70002C3214461A44B2F5807F88BFC3F58074B5
:101C8000054600F596702246184422F0A3F8D5F8D0
:101C90002C322344C5F82C32204638BD70B5036978
:101CA00004468BB928201AF0A3FC94F9141094F977
:101CB0001820054609F05AF82368256120469B6ADA
:101CC0000249BDE87040184770BD00BFA086010002
:101CD00070B5C2B083F00103009302AE044615460E
:101CE000134649003246006908F09CFFC8B9A84273
:101CF00018D0D4F82831B3F5807F10D0D4F8203133
:101D0000325C234483F82020D4F820310133DBB245
:101D1000C4F82031D4F828310133C4F82831013017
:101D2000E5E70025284642B070BD000073B54FF4CA
:101D30007A730025C0E90153184B03600446C0E9DB
:101D40000451826129464FF48072203022F050F80D
:101D5000134BC4F82051C4F838322946C4F8245132
:101D6000C4E98B55C4F82851C4F83452C4F8485219
:101D700004F51E701BF02CF804F50E7604F52370A4
:101D80001AF0EAFE304600952B464FF48052182197
:101D90001DF046F8204602B070BD00BF884C03001D
:101DA000547D030070B50D4C0D4E0E4D1B221921B4
:101DB0002046FFF7BBFF20460B4C324629461AF05F
:101DC000F7F92A222B212046FFF7B0FF3246294699
:101DD0002046BDE870401AF0EBB900BFC8FB001008
:101DE00000010010251C0100BCFE001010B50446C7
:101DF000C08B48B108F0FCFA638CC01AE38B80B248
:101E000083422CBF0020012010BD0000054A8261E2
:101E1000292202770022C28380F820204FF04072EE
:101E200082627047C8FB001070B504468069036881
:101E30000D46DB6A217F16469847A0690368290A88
:101E40001B689847A0690368E9B21B689847A069B6
:101E5000036831461B689847A06903685B6B984725
:101E6000207370BD38B505460C4601F07F02012194
:101E7000FFF7DAFF2C7738BD70B504468069036838
:101E80000E46DB6A217F15469847A0690368310A30
:101E90001B689847A0690368F1B21B689847A0695E
:101EA0000368290A1B689847A0690368E9B21B68A0
:101EB0009847A06903685B6B9847207370BD70B545
:101EC0000446806903680E46DB6A217F1546984701
:101ED000A0690368310A1B689847A0690368F1B2DA
:101EE0001B689847A0690368290E1B689847A0697A
:101EF0000368C5F307411B689847A0690368C5F3E9
:101F000007211B689847A0690368E9B21B689847D6
:101F1000A06903685B6B9847207370BD38B50446B1
:101F2000806903680D46DB6A217F9847A0690368D2
:101F3000290A1B689847A0690368E9B21B6898479B
:101F4000A06903685B6B98472073A069217F0368D1
:101F50000122DB6B9847A06903685B699847C0B2B0
:101F600038BD38B50446806903680D46DB6A217FB9
:101F70009847A0690368290A1B689847A069036805
:101F8000E9B21B689847A06903685B6B98472073A8
:101F9000A069217F03680222DB6B9847A069036870
:101FA0005B6998470546A06903685B69984740EA02
:101FB000052080B238BD10B5C28C04464A436C215E
:101FC000FFF77DFF204601228621FFF72DFF2046E7
:101FD00040228721BDE81040FFF726BF10B50B2136
:101FE0000446FFF79BFF082184F829002046FFF7ED
:101FF00095FF94F8292084F82A0002F07F022046F9
:102000000B21FFF711FF94F82A2002F0030220466B
:102010000C320821FFF708FF012220464D21FFF76F
:1020200003FFD8212046FFF779FF472102462046CB
:10203000BDE81040FFF7F8BE10B504468069217F67
:102040000368DB6A9847A069036800211B6898470A
:10205000A069036889211B689847A06903685B6BC6
:1020600098472073A069217F03681122DB6B984792
:10207000A06903685B699847A073A06903685B69FE
:102080009847A06903685B699847E073A069036893
:102090005B69984700022082A06903685B699847E2
:1020A000238A18432082A06903685B699847A06966
:1020B00003685B699847A06903685B6998470002F9
:1020C0006082A06903685B699847638A18436082ED
:1020D000A06903685B699847A06903685B699847D2
:1020E000A06903685B699847A06903685B699847C2
:1020F000A06903685B6998470002A082A069036831
:102100005B699847A38A1843A082A06903685B694A
:1021100098470002E082A06903685B699847E38AF8
:102120001843E08210BD30B4058A0446C5B1C18AA7
:10213000438A4FF6FF720B44934228BF13461B0499
:102140009D420DD8B3FBF5F34FF02061B1FBF3F3E3
:102150009A4228BF1A4692B2542130BCFFF78CBE77
:102160004FF4004254212046F7E70000828A40F2F3
:10217000DB73534303F58063DB0A0380837B013BFE
:10218000112B37D8DFE803F00909092624282A2E65
:102190003036362C20363636092205238370C38A22
:1021A000DFED156A07EE103A438A07EE903AB8EE73
:1021B000477AF8EE677A27EE267A67EEA67A80ED00
:1021C000017AC0ED027A70470D23E7E70A23E5E7BD
:1021D0000423E3E70223E1E70123DFE70723DDE749
:1021E0000923DBE70323D9E7C37B0BB90623D5E734
:1021F0000023D3E7FF23D1E70000003C10B50446DD
:1022000091B108F0F5F8608431212046FFF786FE91
:10221000C30709D52046FFF7E9FD0028F4D00123C4
:1022200084F82030002010BD2046FFF705FF94F809
:1022300028302BB92046FFF7D1FE012384F828303F
:102240002046FFF770FF2046FFF790FF012286210E
:10225000FFF7EAFD2088E6E7C3B2001203FA00F0B8
:102260000130704760B10138002330F0FF019AB2AD
:1022700003F1010301D04008F7E740EA022080B2F1
:102280007047838C01314FF08040B0FBF3F34FF483
:10229000106058434900C9B280094843800970471B
:1022A000F8B541F2B0139942054652D9A1F58D54C3
:1022B000294B103C9C424CD86021FFF72FFE014671
:1022C0002846FFF7DEFF460806F57A12B2FBF0F269
:1022D000FF2A28BFFF220746D2B24B212846FFF72C
:1022E000A3FD06F58050B0FBF7F0FFF7BBFF6408D5
:1022F00002465A2128462403FFF7BEFD3019B0FBE1
:10230000F7F0FFF7AFFF5E2102462846FFF7B4FD66
:1023100063212846FFF702FE01462846FFF7B1FF7A
:102320004708064607F58050B0FBF6F0FFF79AFF26
:102330005C2102462846FFF79FFD3C44B4FBF6F0C3
:10234000FFF790FF612102462846FFF795FD012027
:10235000F8BD0020FCE700BFE0C8100038B56021E0
:102360000446FFF7DBFD01462046FFF78AFF5E21AA
:1023700005462046FFF7F5FDFFF76EFF4FF40062BC
:102380000023E0FB0523100B40EA035000F6D800C1
:10239000400038BD70B50D460446FFF7DFFF012D44
:1023A00006462FD01DB1022D4CD0002070BD072253
:1023B00060212046FFF738FD052263212046FFF704
:1023C00033FD382269212046FFF72EFD07227821B0
:1023D0002046FFF729FD052279212046FFF724FD3D
:1023E00006227A212046FFF71FFD06227B21204688
:1023F000FFF71AFD31462046FFF752FF84F82B50B5
:102400000120D3E70B2260212046FFF70DFD0922B2
:1024100063212046FFF708FD782269212046FFF757
:1024200003FD0B2278212046FFF7FEFC09227921CB
:102430002046FFF7F9FC0A227A212046FFF7F4FC38
:102440000A22D3E70F2260212046FFF7EDFC0D2280
:1024500063212046FFF7E8FCB82269212046FFF7F8
:10246000E3FC0F2278212046FFF7DEFC0D227921C4
:102470002046FFF7D9FC0E227A212046FFF7D4FC34
:102480000E22B3E738B50D4640F20F110446FFF7B0
:1024900068FD4EF6CC23984240F0BE8000221146E3
:1024A0002046FFF7C1FC642007F0B6FF012200219F
:1024B0002046FFF7B9FC012007F0ACFF07F098FFBA
:1024C0006084E5212046FFF729FDC30740F19B808A
:1024D000237B002B40F0978055B12E212046FFF73B
:1024E0001DFD40F00102D2B22E212046FFF79CFCD8
:1024F00006212046FFF735FDDE21A0842046FFF7A8
:1025000030FD4FF42062E08424212046FFF7B4FC24
:10251000022231212046FFF787FC0822362120467F
:10252000FFF782FC102237212046FFF77DFC0122B5
:1025300039212046FFF778FCFF223E212046FFF795
:1025400073FC00223F212046FFF76EFC022240214F
:102550002046FFF769FC002250212046FFF78CFC43
:10256000002252212046FFF787FC382257212046BF
:10257000FFF75AFC4FF4B47264212046FFF77CFC4D
:10258000C02266212046FFF777FC012271212046F8
:10259000FFF74AFC01227C212046FFF745FC02227E
:1025A0007E212046FFF740FC002282212046FFF7D3
:1025B0003BFC012277212046FFF736FC8B2281214C
:1025C0002046FFF731FC4FF4484254212046FFF7E4
:1025D00053FC02224F212046FFF726FC0221204611
:1025E000FFF7D8FE4CF250312046FFF759FE22216A
:1025F0002046FFF7B6FC820092B220461E21FFF76C
:102600003BFC012038BD2046FFF7F0FB00283FF4DB
:1026100058AF012384F820300020F3E7F8B50746CF
:102620000D461646C3B15C6D93F85810A4B12368EB
:102630002046DB6A9847236839461B68204698473E
:102640002368F2B29B6C29462046984723682046AF
:102650005B6B98470020F8BD0320FCE72DE9F041B3
:102660000746884616463BB35C6D93F858501CB33A
:1026700023682946DB6A20469847236839461B6849
:1026800020469847236800211B6B20469847236803
:102690003246DB6B29462046984786420FD10025FB
:1026A000EFB2BE4205F101050BD9236820465B69F4
:1026B000984708F80700F3E70320BDE8F0810620FB
:1026C000FBE70020F9E7007870470078704710B505
:1026D0004FF4206304468380083000F0B5FB84F893
:1026E0004C00204610BDF8B51D46037904460F4640
:1026F0007BB11046561CB847014620B1206807F050
:1027000075FC3246F5E725B12068BDE8F84007F0D2
:1027100071BCF8BD0A4600230149FFF7E4BF00BFC2
:10272000CB2601000A4601230149FFF7DCBF00BFA9
:10273000C726010003791BB10A22006807F0B6BC66
:10274000704700000F292AD8DFE801F0080B0D0FB1
:1027500011131517191B1D1F212325271149FFF7D9
:10276000D9BF1149FBE71149F9E71149F7E71149C9
:10277000F5E71149F3E71149F1E71149EFE711498D
:10278000EDE71149EBE71149E9E71149E7E711499D
:10279000E5E71149E3E71149E1E71149DFE71149AD
:1027A000DDE700BF704F03007D4F03008B4F030038
:1027B0009B4F0300AB4F0300B44F0300C34F030014
:1027C000D24F0300E74F0300415003006250030063
:1027D0007950030099500300B2500300CA5003001F
:1027E000E3500300F850030070B50C4601F13405C6
:1027F0000646294604F1080000F010FF04F84C0FCB
:102800002B4635461A4603CAA24228606960134621
:1028100005F10805F6D1304670BD0000000000004B
:1028200008B590F84830C3F3810307EE901A032BE4
:1028300029D8DFE803F002090E1EF8EEE77A9FEDD3
:10284000187A87EE870A08BDF8EEE77A9FED157AC9
:10285000F7E7F8EEE77A17EE900AFDF7A3FE0CA370
:10286000D3E90023FEF720F8FEF706F900EE100A80
:10287000E9E7F8EEE77A17EE900AFDF793FE06A374
:10288000D3E90023EEE79FED080ADCE7AFF3008011
:102890006666666666664040666666666666304080
:1028A000000003430000834200000000B0F93E1026
:1028B000FFF7B6BF102908BF90F84C100F299ABF38
:1028C000024B53F821000248704700BFD44C03006C
:1028D000F850030010B50446083000F09CFB84F863
:1028E0004C0010BD10B50446083000F0AEFB84F873
:1028F0004C0010BD10B50446083000F0C1FB84F850
:102900004C0010BD10B50446083000F0E5FB84F81B
:102910004C0060B107492046FFF7FCFE94F84C10CC
:102920002046FFF70FFF04492046FFF7FBFE94F80F
:102930004C0010BD8D520300A074030010B5044676
:10294000083000F0DAFB84F84C00B0FA80F040095F
:1029500010BD10B50446083000F0E4FB84F84C00CC
:10296000012007F057FD94F84C0010BD10B5044647
:10297000083000F034FC84F84C0010BD13B5ADF8FD
:1029800004200446019A083000F096FC84F84C00BC
:1029900002B010BD10B50446083000F0FAFC84F80F
:1029A0004C0010BD10B50446083000F05CFD84F802
:1029B0004C0010BD10B50446083000F070FD84F8DE
:1029C0004C0010BD10B50446083000F0A4FD84F89A
:1029D0004C0010BD10B588B004469DF8400006902C
:1029E0009DF83C0005909DF8380004909DF8340057
:1029F00003909DF8300002909DF82C0001909DF806
:102A00002800009004F1080000F0A0FD84F84C00BC
:102A100008B010BD13B504468DF8073008300DF12D
:102A2000070300F0E4FA84F84C0002B010BD000087
:102A300013B5002304468DF8073008300DF1070365
:102A400000F0E0FA84F84C0060B108492046FFF736
:102A500061FE94F84C102046FFF774FE04492046AE
:102A6000FFF760FE9DF8070002B010BD075103009C
:102A7000A07403000A460C21FFF7DABF10B51378E3
:102A80000A460C210446FFF7C5FF84F84C0010BD30
:102A900010B5012332220C210446FFF7BBFF84F856
:102AA0004C0010BD10B504460430FFF710FE024B79
:102AB0002360204610BD00BF84530300F8B50021F9
:102AC0000446FFF7D7FF94F84C500646B5B12649A7
:102AD0002046FFF71FFE31462046FFF72BFE234915
:102AE0002046FFF717FE94F84C102046FFF72AFE09
:102AF0001F492046FFF716FE2846F8BD0121204653
:102B0000FFF7B8FF94F84C5007468DB116492046A0
:102B1000FFF700FE31462046FFF70CFE1549204620
:102B2000FFF7F8FD39462046FFF704FE1249D7E7C4
:102B3000482E01D10928DFD00B492046FFF7EAFDD6
:102B400031462046FFF7F6FD0A492046FFF7E2FD31
:102B500039462046FFF7EEFD042508492046FFF7D9
:102B6000E1FD84F84C50C7E7BF520300DF52030079
:102B7000A0740300075303002153030048530300CC
:102B800070B504468AB00E460021FFF70BFF012105
:102B90002046FFF70FFF2046FFF77AFF00256379F5
:102BA000AB420CD901352046EDB2FFF787FF30B1BB
:102BB0002046FFF707FF0A2007F02CFCEFE76379B8
:102BC000AB4211D129492046FFF7A4FD6179204687
:102BD000FFF7B0FD26492046FFF7A4FD042584F841
:102BE0004C5028460AB070BD22492046FFF792FD9E
:102BF00029462046FFF79EFD012D0CBF1E491F49A7
:102C00002046FFF78FFD36B11D492046FFF78AFDAC
:102C100094F84C50E5E7082309AA312120468DF8A5
:102C20002430FFF72BFF054660B116492046FFF719
:102C300071FD29462046FFF785FD13492046FFF721
:102C400071FDCCE70123CDE9013309230093CDE9E0
:102C50000566CDE9036610230C2231462046FFF7B6
:102C6000B9FE05460028D3D00849DFE74D510300DF
:102C7000555303008F510300CB510300D051030083
:102C8000D751030011520300A07403004552030002
:102C900073B504460E46FFF735FE054680B1374949
:102CA0002046FFF737FD29462046FFF74BFD344904
:102CB0002046FFF737FD84F84C50284602B070BD1F
:102CC0002046FFF707FE054608B12E49E8E7322007
:102CD00007F0A0FB29462046FFF704FE054608B191
:102CE0002949DDE701462046FFF704FE054608B105
:102CF0002649D5E731462046FFF742FF054608B191
:102D00002349CDE736B123492046FFF70BFD94F860
:102D10004C50D2E7024603212046FFF71AFE054633
:102D200008B11D49BCE74FF0000203212046FFF720
:102D30001DFE054608B11949B2E740F20773ADF828
:102D40000430019A03212046FFF718FE054608B11A
:102D50001349A5E7024601212046FFF71BFE054661
:102D600008B110499CE7002202212046FFF712FE1D
:102D700005460028CBD00C4992E700BF444D030024
:102D8000A0740300724D0300A04D0300CC4D03005E
:102D9000FB4D0300354E03006A4E03009E4E0300B8
:102DA000D14E0300024F0300394F030038B50446EB
:102DB00080F85930416580F85A20C2BB6822FF2B49
:102DC00084F8582003D00121184607F0C1FA94F87E
:102DD0005900FF2803D094F85A1007F0EBFA154B6E
:102DE000E365154BC4E9183404F15C03E360134B4D
:102DF0000021251DC4E904312176C4E90711C4E985
:102E000009112846FFF744FF84F8500060B10C49CF
:102E10002846FFF77FFC94F850102846FFF792FCF5
:102E200008492846FFF77EFC94F8500038BD692217
:102E3000C5E700BF1D2601005D2601000000FFFF61
:102E4000144D0300A074030008B52C22002120F0CB
:102E5000CFFF04228271002008BD30B40D46114618
:102E60001A4603681C6824B12846A4469B6830BCF7
:102E70006047022030BC704730B40D4611461A46F8
:102E800003685C6824B12846A4469B6830BC604750
:102E9000022030BC7047032907B511D882798A42D5
:102EA00010D08171090101F030018DF80710012364
:102EB0000DF107027F21FFF7D0FF03B05DF804FB9F
:102EC0000320FAE70020F8E72DE9F04385B09946A2
:102ED0009DF834808DF80620B8F1000F14BF6FF014
:102EE0007F030023194304468DF807100321FFF7E1
:102EF000D2FF01230DF1070213212046FFF7ADFF9A
:102F000000286FD103212046FFF7C5FF01230DF1F3
:102F1000060214212046FFF7A0FF002862D19DF889
:102F200008309DF838209DF8307003F0200382F0BF
:102F3000010263F07F0362F345138DF80830054604
:102F4000BFB2ABB2BB424DD2B8F1000F3DD00321AE
:102F50002046FFF7A0FF012302AA15212046FFF714
:102F60007CFF00283ED1064600212046FFF793FF54
:102F7000012303AA17212046FFF77EFF9DF80C309E
:102F800040F2E7311A46C3F380138E4288BF43F004
:102F90000103DB0706F10106E6D5C2F300138E42FA
:102FA00094BF1E4643F00106FEB9B8F1000F0AD0E7
:102FB00003212046FFF76FFF012309EB05021721CC
:102FC0002046FFF759FF0135BBE703212046FFF7F5
:102FD00062FF012309EB050216212046FFF73DFFA2
:102FE0000028B4D005B0BDE8F0830120FAE730B581
:102FF00085B001240025CDE901540094FFF764FF5A
:1030000005B030BD1FB50124CDE901440094FFF7A0
:103010005BFF04B010BD13B504460021FFF73BFF72
:10302000012301AA06212046FFF726FF58B99DF883
:10303000043043F080038DF8043001AA01230621F7
:103040002046FFF70AFF02B010BD37B504460D4613
:103050000021FFF720FF012301AA06212046FFF7E8
:103060000BFF58B99DF8043065F386138DF80430D2
:1030700001AA012306212046FFF7EFFE03B030BD71
:1030800037B504460D460021FFF705FF012301AACD
:1030900006212046FFF7F0FE58B99DF8043065F38D
:1030A00045138DF8043001AA012306212046FFF7BD
:1030B000D4FE03B030BD70B505460C4651B10021B9
:1030C000FFF7E9FE2246284601230021BDE87040B3
:1030D000FFF7D2BE032070BD07B500230DF1070135
:1030E0008DF80730FFF7E7FF20B99DF80730EA2B8E
:1030F00018BF042003B05DF804FB13B5002104469B
:10310000FFF7C9FE60B9012301AA1A212046FFF783
:10311000B3FE28B99DF8043013F0010F08BF062054
:1031200002B010BD11F0130F2DE9F34106460C4615
:10313000154652D00021FFF7AEFE00284AD10123E8
:1031400001AA05213046FFF797FE002842D114F06E
:1031500001081EBF9DF8043065F345138DF8043057
:1031600014F002071EBF9DF8043065F304138DF8B8
:10317000043014F010041EBF9DF8043065F386136C
:103180008DF8043001AA012305213046FFF765FEC2
:1031900000BB012301AA05213046FFF76DFEC8B927
:1031A000B8F1000F06D09DF80400C0F34010401B9A
:1031B00018BF012037B19DF80430C3F30013AB42B0
:1031C00018BF012034B19DF80430C3F38013AB4223
:1031D00018BF012002B0BDE8F0810720FAE711F026
:1031E000030F2DE9F3410746884663D011F001042F
:1031F000C2F381062BD0022102F00305FFF74BFE3C
:103200000123044601AA14213846FFF735FE9DF834
:10321000043065F3420304438DF8043001AA01230E
:1032200014213846FFF719FEE4B20443012301AA32
:1032300014213846FFF720FE9DF80430E4B2044321
:10324000C3F34103E4B2AB4218BF44F0010418F0E9
:10325000020F2BD002213846FFF71DFE012319462D
:10326000054601AA3846FFF707FE9DF8043066F3CD
:10327000420328438DF8043001231946044301AA70
:103280003846FFF7EAFDE4B201230443194601AAD8
:103290003846FFF7F1FD9DF80430E4B2C3F3410373
:1032A0000443B342E4B201D044F00104204602B02A
:1032B000BDE8F0810724F9E72DE9FF41ADF80420CE
:1032C0008A0707460D4662D011F001049DF805609B
:1032D0002BD002219DF80480FFF7DDFD0123044679
:1032E00003AA14213846FFF7C7FD9DF80C3068F398
:1032F000C50304438DF80C3003AA0123142138467A
:10330000FFF7ABFDE4B20443012303AA14213846BE
:10331000FFF7B2FD9DF80C30E4B20443C3F3C203DF
:10332000E4B2434518BF44F00104AB072BD502219A
:103330003846FFF7B0FD01231946054603AA384673
:10334000FFF79AFD9DF80C3066F3C50328438DF80E
:103350000C3001231946044303AA3846FFF77DFDCC
:10336000E4B201230443194603AA3846FFF784FD5B
:103370009DF80C30E4B2C3F3C2030443B342E4B299
:1033800001D044F00104204604B0BDE8F0810724D8
:10339000F9E7F7B516468A0705460F4661D011F0E2
:1033A00001042BD00221FFF776FD0123044601AA78
:1033B00014212846FFF760FD9DF8043066F30003F2
:1033C00004438DF8043001AA012314212846FFF795
:1033D00044FDE4B20443012301AA14212846FFF767
:1033E0004BFDE4B20443E4B29DF8043026B1DB07A0
:1033F00004D444F0010401E0D807FAD4B9072DD56C
:1034000002212846FFF747FD01231946074601AA76
:103410002846FFF731FD9DF8043066F3000338437A
:103420008DF8043001231946044301AA2846FFF70A
:1034300014FDE4B201230443194601AA2846FFF70C
:103440001BFDE4B20443E4B29DF8043026B1DA0770
:1034500004D444F0010401E0DB07FAD4204603B0B1
:10346000F0BD0724FAE737B50D4600210446FFF703
:1034700012FD90B9012301AA0F212046FFF7FCFCA1
:1034800058B99DF8043065F341038DF8043001AA62
:1034900001230F212046FFF7E0FC03B030BD37B514
:1034A0000D4600210446FFF7DEFF90BB03212046B6
:1034B000FFF7F1FC68BB01236A4619462046FFF777
:1034C000DBFC30BB9DF8003023F01F0343F01703F3
:1034D0008DF8003001236A4619462046FFF7BDFCEF
:1034E000B8B901462046FFF7D6FC90B9012301AADE
:1034F00003212046FFF7C0FC58B99DF8043065F35E
:1035000045138DF8043001AA012303212046FFF75B
:10351000A4FC03B030BD13B500210446FFF7BBFC8B
:1035200090B9012301AA03212046FFF7A5FC58B951
:103530009DF8043043F002038DF8043001AA012302
:1035400003212046FFF789FC02B010BD2DE9F04FA2
:1035500085B003290446934698469DF83C6053D8AD
:103560002A4B13F801A02A4B5F5C2A4B5D5C2A4B67
:1035700013F801900321FFF78EFC002841D19DF83C
:1035800004306BF3060366F3C7138DF8043001AA09
:10359000012351462046FFF760FC90BB56B99DF8C9
:1035A00050308DF80C3003AA012349462046FFF71E
:1035B00054FC30BB012302AA394620468DF808800E
:1035C000FFF74BFCE8B99DF80C309DF8382062F30A
:1035D00003039DF8402062F3C7139DF8442062F373
:1035E00045139DF8482062F304139DF84C2062F3C4
:1035F00086138DF80C3003AA012329462046FFF7D5
:103600002CFC05B0BDE8F08F0320FAE790530300CF
:1036100094530300885303008C53030070B506468F
:103620008AB00D46002900F08E800021FFF733FCA0
:103630001723044604AA2D213046FFF71DFC9DF8F0
:1036400010209DF8113043EA02232B809DF81220B0
:103650009DF8133043EA02236B809DF814209DF8F7
:10366000153043EA0223AB809DF816209DF81730F1
:1036700043EA0223EB809DF818209DF8193043EAB5
:1036800002232B819DF81A209DF81B3043EA022368
:103690006B819DF81C209DF81D3043EA02236B824C
:1036A0009DF81E309DF820206B759DF81F3043EA71
:1036B0000223AB819DF822209DF8213043EA0223AA
:1036C000EB819DF824209DF8233043EA02232B82CE
:1036D0009DF82630AB75044302213046FFF7DBFB33
:1036E000E4B20443012301AA14213046FFF7C4FBCE
:1036F0009DF804302A7DC3F3410363F30102E4B271
:1037000004432A7502213046FFF7C5FBE4B20123CA
:103710001946044302AA3046FFF7AEFB9DF8083075
:103720002A7DC3F3410363F38302E4B204432A75A1
:10373000012303AA15213046FFF79EFBE4B2204384
:10374000C0B20AB070BD0320FBE71FB5C06803918B
:10375000036801220092DC6803A90DF10B03A04766
:103760009DF80B0004B010BDF8B5427A036804461A
:103770000E46CFB29B680D0A62B939469847236856
:1037800060F307069B6829462046984760F30F269A
:10379000B0B2F8BD29469847236860F30F269B68AE
:1037A00039462046984760F30706F1E713B5C0682D
:1037B00003680092DC680B46A04702B010BD70475A
:1037C0007047C06810B103685B681847704770475E
:1037D0002DE9FF416F4687E80600C3689DF8046045
:1037E0009DF8058004460D4613B90368DB6A9847C7
:1037F0006368AB4204D1BDF8042023899A421ED0ED
:10380000104B9D420BD902938DF80C608DF80D8002
:1038100004AB13E903000546CEB2C1F307283246D4
:103820000821E06807F06BFB2946E06807F084FB9D
:103830008DF804608DF80580BB886560238104B035
:10384000BDE8F081006CDC0210B51421044618F0CC
:10385000F9FE204610BDC36837B504467BB9302059
:1038600018F0C6FE4FF0FF330546009394F9102080
:1038700094F9123094F9111007F008FBE56003B0D9
:1038800030BD00000848094B0360002343604FF43B
:103890008073038140F206730382054A05490523BC
:1038A000837418F085BC00BFB0010110A053030061
:1038B00000010010CF370100704710B55C210446AD
:1038C00018F0C0FE204610BD0A4A02601F210022E7
:1038D000C0E90921C0E90B228286C0E90E220264F8
:1038E000A0F8442080F84620C0E91222C0E9152241
:1038F000704700BFDC5303008B6A8362CB6AC362EC
:103900000B6B036391F8343080F8343091F8353024
:1039100080F835308B6B8363CB6BC3630B6C0364B4
:10392000B1F84430A0F8443091F8463080F8463081
:103930008B6C8364CB6CC364B1F85030A0F850300A
:103940004B6D43658B6D8365704708B5FFF7D4FFFA
:1039500008BD70B5054686B068460E4603F008FD02
:10396000EC6C6846002CCCBF0234002403F03FFD11
:103970000230241AA86A241808D4AC62AE646846DF
:1039800003F035FDE864012006B070BD0020FBE7C0
:1039900010B5036C1BB190F8464084B90233941CF7
:1039A0001B1B846A1B1958BFC0E90F124FF000049B
:1039B0005BBF80F8464083622046012010BD04337F
:1039C000EDE730B5046C1CB190F846508DB9023467
:1039D0001D1D641B856A64195FBFC0E90F230123A5
:1039E000A0F8441080F8463056BF84620020184684
:1039F00030BD0434ECE730B5846D002CCCBF04340A
:103A000000241D1D641B856A64195DBFC0E9152370
:103A1000A0F850108462002058BF012030BD70B55E
:103A20000546806B0E4688B1047814B1FDF750FA54
:103A3000841C3046FDF74CFA0230241AA86A241878
:103A40005DBFAC62AE630120002070BD0446F0E7AC
:103A500090F83530826A002B0CBF6FF00203002310
:103A60009B185FBF8362012380F8353080F83410E3
:103A700054BF18460020704704307047406A7047B2
:103A800090F83500704738B50446406AC0F11F030E
:103A90009342154608DB0430204420F09BF9626A0B
:103AA0002A446262012038BD0020FCE770B504465C
:103AB000406A0E461D4611460233C0F11F029A426B
:103AC0000FDB23186A1C1A71821C063062622044C4
:103AD0005E712A4620F07EF9636A2B4463620120FE
:103AE00070BD0020FCE770B586B00546684603F05F
:103AF0003FFC684603F07BFC022804466846CCBFC6
:103B00000626022603F071FC23460246314628466B
:103B1000FFF7CCFF06B070BD13460A46FF21FFF742
:103B2000C5BF30B589B0054610461C46ADF800103B
:103B30001A4601460DF1020020F04CF9A31C6A461A
:103B4000FF212846FFF7B2FF09B030BD30B589B07C
:103B5000054610461C46ADF800101A4601460DF108
:103B6000020020F037F9A31C6A4616212846FFF709
:103B70009DFF09B030BD07B501238DF807100DF189
:103B800007021946FFF792FF03B05DF804FB70B51A
:103B9000054610460E461446FDF79AF9224603469E
:103BA00031462846BDE87040FFF780BF70B5054636
:103BB00008460C46FDF78CF91D2807D922462846F1
:103BC0001D230821BDE87040FFF770BF224628463C
:103BD0000921BDE87040FFF7DABF38B5C16A00239C
:103BE0000546436229B1026B1AB1BDE83840FFF7C0
:103BF0004ABF95F835307BB395F834102846FFF767
:103C0000BAFF0446A96C21B12846FFF76CFF0440B7
:103C1000E4B2E96B61B12B6C53B195F84620EAB17F
:103C20000A462846B5F84410FFF77BFF0440E4B28B
:103C30006A6D42B1AB6D33B1B5F850102846FFF74D
:103C400085FF0440E4B2A96B21B12846FFF7AEFF1F
:103C50000440E4B2204638BD0124D3E71A46284682
:103C6000FFF75AFFE2E700000C4B10B50446036073
:103C7000406838B100F0B2FA20B9606810B103684A
:103C80005B689847A06838B101F023F820B9A068B4
:103C900010B103685B689847204610BDEC530300E1
:103CA00010B50446FFF7E0FF20460C2118F0CAFCCF
:103CB000204610BD064B10B5C0E900310023044674
:103CC000836011B1084600F084FA204610BD00BFA1
:103CD000EC530300064B10B5036000230446C0E913
:103CE000013111B1084600F0EFFF204610BD00BFC2
:103CF000EC5303002DE9F3410446542098460E4648
:103D0000174618F075FC9DF8203000930546434691
:103D10003A46314600F03CFB29462046FFF7CAFFF1
:103D2000204602B0BDE8F0810346406808B100F0CB
:103D300065BA986808B100F0F1BF70470346406863
:103D400008B100F05DBA986808B100F0E9BF7047AB
:103D500010B4446824B120465DF8044B00F052BA18
:103D6000806818B15DF8044B00F0DCBF5DF8044BCF
:103D700070470346406808B100F0A4BA986808B1DB
:103D800001F024B87047406808B100F0A8BA704745
:103D90004068704770470000024B186803681B6951
:103DA000184700BF7C570300024B186803685B6923
:103DB000184700BF7C57030010B4054B01791B68FE
:103DC0001A685469421D184623465DF8044B18478B
:103DD000D055030010B50B4B0446186821790368D1
:103DE000621D9B6A98474FF6FF739842014606D0C2
:103DF000054B18680268BDE81040926A104794F9B4
:103E00004B0010BDD05503007C57030010B54C216A
:103E1000044618F017FC204610BD000010B58AB00B
:103E20004B7903938B790293CB7901930B7A0093AF
:103E300004464B7A8A7A054905A818F00DFE05A9B3
:103E4000204606F09EF920460AB010BDF453030048
:103E500007B500230622694605300093ADF804300B
:103E60001FF0AAFF003018BF012003B05DF804FB6B
:103E700008B502790B799A4208D10622053105303E
:103E80001FF09AFFB0FA80F0400908BD0020FCE75F
:103E900010B50A4B0446186803681B6998472368E5
:103EA00020461B6A984740B1054B21791868036882
:103EB000621D5B6BBDE81040184710BD7C570300C6
:103EC000D055030008B502790B799A4208D1062231
:103ED000053105301FF070FF003018BF012008BD0C
:103EE0000120FCE7064A02607F210022C2720273B1
:103EF00080F84B10C0F80520A0F80920704700BFDB
:103F00001C54030010B501710021C1720173064CED
:103F100004607F2180F84B101168C0F8051092886A
:103F2000A0F8092010BD00BF1C540300F8B50F46CF
:103F30001249064606F025F9397B0024A1421ADD14
:103F40003B19A21C5D7B9B7B083B012B05F1FF35D8
:103F50000FD82946304606F0EDF80F343C440027D0
:103F6000BD4208DD14F8011B304606F05DF901374B
:103F7000F6E7AC18E2E73046F8BD00BFA0740300D6
:103F80002DE9F04F85B0884622490192834606F01C
:103F9000F8F80024A14698F80C30A34235D908EB74
:103FA0000403671CFFB25E7B08EB07035B7B9A1E72
:103FB000012A25D9063B012B24D8102505FB05F342
:103FC0000234009358FA84F44FF0000A731EEAB2E8
:103FD000534517DD019989450CD1114604F10D00B7
:103FE0000393029203F006FA0146584606F0F4F8ED
:103FF000DDE90223009909F10109AA440C44E7E72D
:104000000225DBE73E44F4B2C5E7584605B0BDE8FB
:10401000F08F00BFA074030010B500220446FFF724
:10402000AFFF204610BD08B5134602798A4208D179
:104030000622194605301FF0BFFEB0FA80F0400995
:1040400008BD0020FCE710B50446012000FA01F18C
:10405000E1722273194604F10D001FF0BBFE9DF9B9
:10406000083084F84B3010BD70B50D461146C27A49
:1040700042F010020446C272007B0D302A462044F2
:104080001E461FF0A7FE237B84F84B601D4425735A
:1040900070BDC37A13F0180F14BF012000207047C1
:1040A0000C4B10B504460360406838B100F096F838
:1040B00020B9606810B103685B689847A06838B1A0
:1040C00000F007FE20B9A06810B103685B6898474C
:1040D000204610BD5054030010B50446FFF7E0FF22
:1040E00020460C2118F0AEFA204610BD064B10B544
:1040F000C0E9003100230446836011B1084600F096
:1041000068F8204610BD00BF5054030070B5044647
:1041100030200E4618F06CFA3146054600F00EFDD0
:1041200029462046FFF7E2FF204670BD034640685F
:1041300008B100F045B8986808B100F0C3BD014867
:10414000704700BFA0740300406808B100F034BDA0
:10415000704740687047000030B585B001250446BF
:104160000095042392B2FFF7C5FD074B236000239F
:10417000039304222B4603A92046FFF7E9FD034BD6
:104180002360204605B030BDE4470300F447030038
:1041900070470020704710B52021044618F052FAED
:1041A000204610BD10B5054B044640F8043B03F013
:1041B000DFF80023E361204610BD00BF6054030018
:1041C000043003F010B9043003F00FB9043003F0E9
:1041D0000EB9C3690133C36118467047C369013B17
:1041E000C3611846704742F60300704790F82000FC
:1041F000704790F821007047406A7047806A7047A6
:10420000808D7047F8B51546426AAA42A8BF2A4673
:104210000446828592B2806A0E461FF0DBFD94F858
:104220002E300BB1636AA38594F8203098060DD523
:10423000A28E91070AD51F4B218E186803685D6D09
:104240000131A38DA26A89B2A847F8BDDA0609D563
:10425000A38EDB0706D5174B218E18680368013142
:104260001D6DEEE794F832300BB90120EDE7124BEB
:104270001868036821465B6A9847104B1C682368DE
:1042800001461F6B32462B462046B847094B18683B
:1042900003681B6B98470028E7D1094B186803682F
:1042A0009B6898470028E0D0236820465B6D9847BC
:1042B000DBE700BFD05503001C5703009C540300EC
:1042C000D056030038B5054608460C46FCF700FEFC
:1042D000214602462846BDE83840FFF793BF034613
:1042E000002290F8330083F833207047018670472E
:1042F000008E7047008E013080B27047806B70472F
:10430000836B994208D2C36B0022914202D05B6852
:104310000132FAE7186870470020704730B5114B3A
:1043200003600B7903710B4601F1490453F8052F23
:10433000C0F805209B88A0F80930CB7AC3720B7BAC
:10434000037300F10D0201F10D0353F8045B42F811
:10435000045BA342F9D11B88138091F94B3080F89C
:104360004B3030BD1C54030038B5044608200D46C0
:1043700018F03EF90023C0E9005363682BB9606070
:104380002368A0600133236038BDA3685860F7E755
:1043900070B504461D461646FFF704FFB5F5007FCD
:1043A000194B23602B46A8BF4FF4007300216362B2
:1043B0009DF810302684A18584F82E302163A186D3
:1043C000C4E90E112164102204F144001FF010FD15
:1043D00016F0300F11D02C2018F00AF90B490646C0
:1043E000022304F1340200F0D7F83046FFF7F1FE63
:1043F000314604F13800FFF7B7FF28461FF0CCFC28
:10440000A062204670BD00BF7C5403006C540300C2
:1044100070B50446406800252368AB4206D946685B
:10442000082118F00FF901353046F5E70023C4E9FB
:104430000033A36070BD0000154B70B504460360E7
:104440000025A36B9D4212D2E36B0022954202D05D
:104450005B680132FAE71E683046FFF7BFFE20B9FD
:104460001EB1336830465B6898470135E9E704F1CF
:1044700038052846FFF7CCFFA06A08B11FF094FC6E
:104480002846FFF7C5FF2046FFF782FE204670BD95
:104490007C54030010B50446FFF7CEFF204654219C
:1044A00018F0D0F8204610BDF0B5C56C97B00446A2
:1044B00017461E467DB103A8FFF730FF2146684628
:1044C000FFF7F8FB694603A8A8476846FFF7CCFB4F
:1044D00003A8FFF75FFCA16A1C9A394430461FF01D
:1044E00079FC17B0F0BD70B504460E4611460122A6
:1044F00080F8332096B01A46FFF784FE256D85B10B
:10450000314603A8FFF70AFF21466846FFF7D2FBB2
:10451000694603A8A8476846FFF7A6FB03A8FFF76C
:1045200039FC16B070BD30B5838E02F003029342A1
:1045300097B0044617D08286002A0CBF442240223E
:10454000024455687DB103A8FFF7E8FE214668469E
:10455000FFF7B0FB694603A8A8476846FFF784FB4E
:1045600003A8FFF717FC17B030BD4FF42450704775
:1045700010B5034B03600446FFF70AFE204610BD4A
:104580009054030010B50446FFF7F2FF20462C219B
:1045900018F058F8204610BD70B504461D46164662
:1045A000FFF700FE064B2360B5F5007FA8BF4FF470
:1045B00000750023266265622385204670BD00BF1A
:1045C00090540300406A7047006A70470185704745
:1045D000064B1868036810B5DB689847044B1868E9
:1045E0000368BDE81040DB68184700BF1C57030094
:1045F0007C570300024B186803681B69184700BF0B
:104600007C570300024B186803685B69184700BFBA
:104610007C57030010B5064B186803681B69984760
:10462000044B18680368BDE810401B6B184700BFB7
:104630007C570300D055030010B5064B186803687B
:104640001B699847044B18680368BDE81040DB6B92
:10465000184700BF7C570300D0550300024B186871
:1046600003689B6C184700BFD05503000C3070479F
:1046700068307047024B186803681B69184700BF11
:104680001C570300024B186803685B69184700BF9A
:104690001C570300024B186803689B69184700BF4A
:1046A0001C570300024B186803681B69184700BFBA
:1046B000D0560300024B186803685B69184700BFB7
:1046C000D0560300024B186803685B6A184700BFA6
:1046D000D056030010B5074B0446186803681B69E1
:1046E0009847054B19680B682046DB6C98472046B5
:1046F00010BD00BF7C570300D055030010B5074B19
:104700000446186803681B699847054B19680B68CD
:1047100020469B6A9847204610BD00BF7C57030087
:10472000D0560300024B18680368DB6A184700BFC5
:10473000D0560300024B186803689B69184700BFF6
:10474000D0590300024B18680368DB69184700BFA3
:10475000D0590300024B186803681B6B184700BF51
:10476000D0560300024B18680368DB68184700BF87
:10477000D0550300024B186803681B6A184700BF36
:10478000D0590300024B186803685B6A184700BFE2
:10479000D0590300024B1B68C3F8F010704700BFEC
:1047A0007C570300024B1B68C3F8F810704700BF2A
:1047B0007C570300024B1B68C3F8F410704700BF1E
:1047C0007C570300024B1B68C3F8EC10704700BF16
:1047D0007C570300024B1B68C3F8FC10704700BFF6
:1047E0007C570300024B1B68C3F80011704700BFE1
:1047F0007C570300024B18680368D3F89C301847B5
:104800007C570300024B18680368D3F8A0301847A0
:104810007C570300F0B52A4B1D682B6887B004460F
:104820009B6828469847064620B923682046DB68DF
:1048300098470DE0642005F0EDFD2B6828469B6944
:104840009847064638B123682046DB68984700261B
:10485000304607B0F0BD05AA2B6801920DF1120297
:104860000092DF6904AA0DF10E030DF10D01284637
:10487000B8470028D9D12B684FF0FF32D96A2846B3
:104880006FF0404388470028CFD12B6840F2FF32B9
:10489000196B28460023884706460028D3D12B6889
:1048A0000DF10F025B6B0DF11601284698470028A9
:1048B000BBD1044B186803689B6898470126C7E77B
:1048C0007C5703001C57030010B58CB000230593E0
:1048D000ADF81830104B04461868036805A91B6A28
:1048E00098479DF8143003939DF8153002939DF876
:1048F000163001939DF8173000939DF819209DF80C
:104900001830064907A818F0A7F807A9204605F0AF
:1049100038FC20460CB010BD7C570300F453030054
:104920000C30FFF716B870B50368044608469D6A58
:10493000FFF7FCFB2B4601462046BDE870401847B8
:104940000C30FFF758B80C30FFF722B80C30FFF7E7
:1049500038B86830FFF763B86830FEF7F6BF10B5B7
:1049600000F10C042046FEF7F0FF2046FFF788F820
:1049700028B920460621BDE81040FFF769B810BDF0
:104980002DE9F74300F10C05044668342846FFF78B
:1049900024F92046FFF721F90E4B1E68336828469C
:1049A000DF68FFF769F880462846FFF767F8054695
:1049B0002046FFF761F881462046FFF75FF8C0B256
:1049C00000904B46EAB241463046B84703B0BDE8D6
:1049D000F08300BFD05603007FB5094B1C682368E5
:1049E000164601A89D6905F0EDFB324601A9204657
:1049F000A847044601A805F07EFB204604B070BD20
:104A0000D05603007FB5094B1C682368164601A8E1
:104A1000DD6905F0D7FB324601A92046A8470446C8
:104A200001A805F068FB204604B070BDD056030015
:104A30007FB5094B1C682368164601A81D6A05F05E
:104A4000C1FB324601A92046A847044601A805F04B
:104A500052FB204604B070BDD056030002290BBFA4
:104A6000044B054B186818680BBF036803685B6B41
:104A70009B6D1847D0560300D055030038B5044647
:104A8000084B44F80C3B05462046FEF71DFF05F198
:104A90006800FEF719FF06212046FEF7D9FF2846D9
:104AA00038BD00BFA854030010B5054C2046FFF7E1
:104AB000E5FF2046034A0449BDE8104017F078BBE3
:104AC000C401011000010010CD4A010010B5064BD1
:104AD000044640F8683BFEF7EFFE04F10C00FEF7D9
:104AE000EBFE204610BD00BFA854030010B50446DD
:104AF000FFF7ECFF2046C42117F0A4FD204610BDAF
:104B000010B50B4B19680B6894B001A8DB6C984783
:104B100001A8FFF79DF948B101A8FFF75BF904462A
:104B200001A8FFF737F9204614B010BD7F24F7E73E
:104B3000D05503004FF420507047000010B50446D4
:104B4000FFF730FB044B23600023C4E90833C4E9BA
:104B50000A33204610BD00BF74550300018442840F
:104B60007047008C7047408C7047406A7047436ABA
:104B7000994208D2836A0022914202D05B680132D6
:104B8000FAE7186870470020704738B504460846B1
:104B90000D46FFF71EFB082017F02AFD0023C0E991
:104BA0000053A36A2BB9A062636AE06201336362B7
:104BB00038BDE36A5860F7E710B504460846FFF7CA
:104BC000E7F8014620B12046BDE81040FFF7DDBF01
:104BD00010BD70B50446406800252368AB4206D975
:104BE0004668082117F02EFD01353046F5E7002311
:104BF000C4E90033A36070BD10B504462430FFF74C
:104C0000E8FF0023236210BD134B70B50446036018
:104C10000025636A9D4212D2A36A0022954202D007
:104C20005B680132FAE71E683046FFF7D7FA20B911
:104C30001EB1336830465B6898470135E9E7204686
:104C4000FFF7DAFF04F12400FFF7C3FF2046FFF768
:104C50009FFA204670BD00BF7455030010B504468E
:104C6000FFF7D2FF2046302117F0ECFC204610BDA4
:104C700010B5044B044640F8043B05F03CFA2046CE
:104C800010BD00BF8855030010B50446FFF7F0FFC4
:104C90002046142117F0D6FC204610BD38B5044636
:104CA0002546074B45F8043B0846114602F0A2FB97
:104CB0000146284605F065FA00232361204638BDE9
:104CC0008855030040687047036901330361184643
:104CD00070470369013B03611846704738B50446C5
:104CE0001D46FFF7DBFF0C4B2360BDF81030E3825D
:104CF000BDF814302383BDF8183063834FF48072FD
:104D00000023A582C4E90733A284C4E90A33C4E9B5
:104D10000C33204638BD00BF98550300C06970476A
:104D2000006A70472DE9F0439846274B1E683368A8
:104D300085B004460F469B6B818A30469146984762
:104D400018B9002005B0BDE8F0833368A18A5B6C18
:104D500030469847033885B24D45A8BF4D46294691
:104D6000E0691FF03DF9E0610028EAD0237E1A07D0
:104D70001CD5B8F1000F19D003AA33680192EAB22A
:104D80000092D3F86080628BA18A3B463046C047D0
:104D90000028D7D09DF80C30012BD2D02A463946B6
:104DA000E0691FF017F825620120CBE75B07C8D543
:104DB0003368A18AEAB20092D3F86480628B3B46E2
:104DC0003046C047EAE700BFD055030070B505463E
:104DD000084616460C46FCF77BF833460246214649
:104DE0002846BDE87040FFF79DBF408B704738B53F
:104DF000044608460D46FFF767FF082017F0F8FB4A
:104E00000023C0E90053E36A2BB9E062A36A206380
:104E10000133A36238BD236B5860F7E770B50446D1
:104E2000406800252368AB4206D94668082117F080
:104E300009FC01353046F5E70023C4E90033A360DF
:104E400070BD03688B4208D9436800228A4202D0B1
:104E50005B680132FAE7186870470020704700006D
:104E6000F8B50546134B45F8283B04460026A36ACF
:104E70009E420ED231462846FFF7E3FF0746FFF772
:104E800028FF20B91FB13B6838465B689847013658
:104E9000EDE72846FFF7C2FFE06918B11EF084FF76
:104EA0000023E3612846FFF7B9FF2046FFF7E0FE45
:104EB0002046F8BD9855030010B50446FFF7D0FF13
:104EC0002046382117F0BEFB204610BD70B50446C1
:104ED000036296B00D46C069194616461FF080F869
:104EE000E06110B9206216B070BD01233146A38481
:104EF000226A1EF06FFF666B002EF4D0194B0393ED
:104F00002B798DF810302B4605F1490153F8052F08
:104F1000CDF811209B88ADF81530EB7A8DF817305D
:104F20002B7B8DF818300DF1190205F10D0353F8A4
:104F3000040B42F8040B8B42F9D11B88138095F8BF
:104F40004B308DF8573021466846FEF7C3FE694660
:104F500003A8B0476846FEF787FE03A8FEF71AFFCE
:104F6000C1E700BF1C540300074B10B504460360A3
:104F7000806918B11EF018FF0023A3612046FFF7D7
:104F800077FE204610BD00BFA855030010B50446AB
:104F9000FFF7EAFF2046202117F054FB204610BD02
:104FA00038B504461D46FFF779FE054B2360BDF872
:104FB0001030E3820023A582C4E90633204638BDC1
:104FC000A8550300034A02600022C0E90122C26022
:104FD000704700BFB855030038B5044608460D4673
:104FE000FFF772FE082017F003FB0023C0E900530F
:104FF000A3682BB9A0606368E0600133636038BDCB
:10500000E3685860F7E7406870474368994208D200
:1050100083680022914202D05B680132FAE7186887
:1050200070470020704770B504464068002523682B
:10503000AB4206D94668082117F004FB013530461B
:10504000F5E70023C4E90033A36070BD70B50646E0
:10505000002473689C4212D2B3680022944202D0AA
:105060005B680132FAE71D682846FFF732FE20B977
:105070001DB12B6828465B6898470134E9E7301D6D
:10508000FFF7D1FF70BD000038B50446054B44F86A
:10509000043B0546FFF7DAFF2046FFF7C4FF28462A
:1050A00038BD00BFB855030010B50446FFF7ECFF4C
:1050B0002046102117F0C6FA204610BD38B5044628
:1050C0001D46FFF7EBFD084B2360BDF81030E3826F
:1050D000A582064904F1180005F053F80023C4E93D
:1050E0000933E362204638BDC8550300A0740300AD
:1050F000808A7047C08A7047406A7047436A994205
:1051000008D2836A0022914202D05B680132FAE73A
:10511000186870470020704738B5044608460D46A9
:10512000FFF7D2FD082017F063FA0023C0E900530F
:10513000A36A2BB9A062636AE0620133636238BD7F
:10514000E36A5860F7E770B50446406800252368B5
:10515000AB4206D94668082117F074FA013530468B
:10516000F5E70023C4E90033A36070BD154B70B5AB
:10517000044603600025636A9D4212D2A36A00229E
:10518000954202D05B680132FAE71E683046FFF7AD
:10519000A0FD20B91EB1336830465B6898470135E1
:1051A000E9E704F124052846FFF7CDFF2846FFF77D
:1051B000CAFF04F1180004F09EFF2046FFF758FDD7
:1051C000204670BDC855030010B50446FFF7CEFF5A
:1051D0002046302117F036FA204610BDA0F8A8105E
:1051E0007047C0F8AC1070472DE9FF41013A13F841
:1051F000014BD6B20268CDE90233526C05460F4628
:1052000090470C2C02462968029B79D02FD8052C98
:1052100069D01AD8022C60D00BD8012C53D00623A9
:105220000093D1F8DC600023224639462846B04777
:105230006EE0032C54D0042CF1D10093D1F89440AB
:10524000334639462846A04762E0092C52D007D899
:10525000062C4BD0082CE2D10093D1F8A440EFE704
:105260000A2C4DD00B2CDAD1D1F8B4402DE0162CFD
:1052700051D00FD8112C40D005D8102CCFD100938D
:10528000D1F8B840DCE7122C18D0132CC7D1D1F8D4
:10529000C8401AE01D2C04D00CD8182C3FD01B2C71
:1052A000BDD10093D1F8D4803346224639462846F2
:1052B000C0472DE01E2C36D0522CB0D1CDE9006372
:1052C000D1F8C46020E0D1F88440324639462846FF
:1052D000A44604B0BDE8F0416047D1F88840F4E747
:1052E000D1F89040F1E7D1F89C40EEE70093D1F877
:1052F000A040A5E7D1F8AC40E7E7D1F8C040E4E72B
:10530000CDE90063D1F8B060234639462846B0475E
:1053100004B0BDE8F0810093D1F8CC4090E7009351
:10532000D1F8D0408CE7D1F8D840CEE7B0F8B02023
:105330004FF6FF739A4209D1B0F8CC30934205D1B1
:10534000B0F8E800C01A18BF01207047012070476C
:1053500008B503689B6A98474FF6FF73C01A18BFD9
:10536000012008BD38B50B4B0546186803681B695A
:105370000C469847B5F8B030A34209D0B5F8CC3008
:10538000A34205D0B5F8E800031B5842584138BD88
:105390000120FCE77C57030090F9C830002B07DBA5
:1053A00090F9E430002B03DB90F80001C00970474E
:1053B00001207047B0F8B0308B420ED0B0F8CC303E
:1053C0008B420CD0B0F8E8308B420AD102231C2269
:1053D00002FB0303B3F8C00070470023F7E7012383
:1053E000F5E7172070471FB5ADF80D200268009350
:1053F00002248DF80C400323D2F8F04003AAA04702
:1054000004B010BD1FB5ADF80920ADF80B30069AF9
:105410000368009204248DF8084002AAD3F8F040F3
:105420000523A04704B010BD1FB5ADF80B30BDF883
:105430001830ADF80920ADF80D30079A03680092D6
:1054400010248DF8084002AAD3F8F0400723A047A3
:1054500004B010BD1FB5ADF80B30BDF81830ADF875
:105460000920ADF80D30079A0368009208248DF8E2
:10547000084002AAD3F8F0400723A04704B010BDAB
:10548000012380F8043170471FB5ADF80A309DF84C
:1054900018308DF80C30084B8DF8092001208DF85C
:1054A0000800186802AA03680092D3F89440042206
:1054B0000523A04704B010BD7C57030001299CBF01
:1054C00000EB8100C0F81C2170471FB5ADF80D201E
:1054D000026800930A248DF80C400323D2F8F040B0
:1054E00003AAA04704B010BD30B5B0F8B0308B426D
:1054F0001BD0B0F8CC308B4219D0B0F8E8308B42DA
:1055000017D102231C2101FB0301B431941D11F8B2
:10551000015B04F801599442F9D11C2202FB0303F8
:10552000012093F8B330237030BD0023EAE7012354
:10553000E8E70020F8E700002DE9F843DFF8648091
:1055400000F1B40400F5847500264FF6FF774FF0A4
:10555000170934F8041CB9421BD0D8F800000368BE
:10556000D3F898309847A0B904F8020C04F8010C5D
:105570002060A080C4F806006081206924F8047CC3
:105580000136A4F80C9010B103685B6898470023BB
:1055900023611C34AC42DCD1002ED4BF002001209A
:1055A000BDE8F8837C57030010B5054B0360044643
:1055B000D0F8080108B11EF0F7FB204610BD00BF6F
:1055C000DC55030010B50446FFF7EEFF20464FF40C
:1055D000927117F037F8204610BD00002DE9F04316
:1055E0001D4B1D688BB006230F46042100249046F6
:1055F0002A680097CDE90713C821CDE905410C21A0
:10560000CDE90331CDE901840646D2F85490234612
:10561000302260212846C847D8B904F0E9FE044684
:1056200004F0E6FED6F8AC30001B98422B680DD291
:105630001B6928469847336842465B6B39463046BB
:1056400098470028ECD00BB0BDE8F083DB6D28460E
:1056500098470020F7E700BF7C570300F8B50368C0
:105660009B6A044698474FF6FF73984206461ED041
:10567000104B1D682B680146D3F898302846984790
:1056800004F0B6FE074604F0B3FED4F8AC30C01BFD
:1056900098420CD22B6828461B69984723683146EC
:1056A0009B6B204698470028EDD10120F8BD0020D3
:1056B000FCE700BF7C5703002DE9F3410546089C39
:1056C000A5F810111078C5F81441013085F81201C1
:1056D000002085F818011948066830680092D0F853
:1056E0009480DBB2042230460F46C04724B304F056
:1056F0007FFE044604F07CFED5F8AC30001B9842D7
:1057000014D2336830461B6998472B6839469B6B27
:105710002846984750B195F818010028EAD04FF66E
:10572000FF73A5F8103102B0BDE8F0814FF6FF73AA
:10573000A5F810310020F6E72046F4E77C57030077
:105740002DE9F047994603689B6A044698474FF64F
:10575000FF739842054604D14FF000084046BDE86B
:10576000F08723680146D3F8E0302046984780460A
:105770000028F1D0B4F8B030AB423FD0B4F8CC3010
:10578000AB423DD0B4F8E830AB42E5D102261C274D
:1057900007FB0647D7F8C4303BB9102016F028FFA6
:1057A0008246FFF70FFCC7F8C4A01C2303FB064684
:1057B000D6F8C460002ECFD03046B9F1000F21D109
:1057C000FFF744FC23683246D3F8E47029464B4681
:1057D0002046B8470028BFD023683246D3F8E830C7
:1057E0002946204698470028B6D0236832462946E5
:1057F0002046D3F8EC30BDE8F04718470026C6E74E
:105800000126C4E7FFF7FFFB002782465745D9DA98
:1058100039463046FFF7F9FBFFF754FA49461EF0C8
:105820003BFC00289AD00137F0E7F0B5C5B004463C
:105830009DF82851ADF80D200F4612218DF80C105F
:105840002A4619460DF10F001EF0C4FA23684B9A40
:105850000092D3F8F06003AAEB1C39462046B0470B
:1058600045B0F0BDF0B5C5B004469DF82851ADF87F
:105870000D200F4652218DF80C102A4619460DF1C5
:105880000F001EF0A7FA236800220092D3F8F06000
:1058900003AAEB1C39462046B04745B0F0BD10B511
:1058A00000F1C90300F21D1033F8194C8C4201BFFE
:1058B0001C8814809C7894701C338342F4D100209F
:1058C00010BD00002DE9F0410446B0F8B00096B0DC
:1058D0001F464FF6FF7398421C9E09D0B4F8CC00C7
:1058E000984242D0B4F8E80098423BD1022000E050
:1058F00000201C2545436019172380F8B220A0F82A
:10590000C030A0F8B01080F8B37005F1B40331686E
:10591000E150E218B3889380711D721E0DF10903E6
:1059200012F8010F03F801098A42F9D1104B1868E7
:10593000BA35036804EB0508D3F89030424601A954
:10594000984710B96051A8F80400D4F81C414CB134
:105950003246394603A8FEF7D5FA03A8A04703A8A4
:10596000FEF718FA16B0BDE8F0810120C1E700BFCC
:105970007C5703002DE9F04106460F46904600F1A2
:10598000B405002415F8013CBB420CD10622414667
:1059900028461EF011FA30B91C2303FB0464B4F846
:1059A000B000BDE8F0810134032C05F11C05E9D1FC
:1059B0004FF6FF70F5E72DE9F04106460F46904699
:1059C00000F1B405002415F8013CBB420CD10622BD
:1059D000414628461EF0F0F930B91C2303FB04644D
:1059E000D4F8C400BDE8F0810134032C05F11C0596
:1059F000E9D10020F6E738B54FF6FF7204460B46B2
:105A00000020B3F8B050954203D093F8B250012D66
:105A100008D00130032803F11C03F2D12046FEF721
:105A200061FA0AE01C23434303F1B4020B440A4425
:105A3000204693F8B310FEF765FA204638BD98B5B6
:105A4000B0F8A820D31DEC46DB08ACEBC30300AFD5
:105A50009D460368D3F88C406B46A047003018BFC2
:105A60000120BD4698BD00002DE9F04F87B002AF80
:105A70001D46DFF890A0B96000F15403914604463A
:105A8000FB600026B4F8B080C7F804D04FF6FF736F
:105A900098452BD0B4F8C030DA1D6946D208A1EB86
:105AA000C202033B95469BB2ADB29D424FF01B0232
:105AB00028BF1D468DF80820BA68ADF80920494670
:105AC0002A460DF10B001EF085F9DAF800000DF101
:105AD000080B0268CDF800B0EB1CD2F894B0DBB232
